2021-01-14 16:53:44,300 [tc.cpp:98] INFO  - config:
Using config file: /code/privatenet/config-privatenet-sim
+ using enclave image: /tc/enclave/enclave.debug.so
+ listening for TC relay at port: 8123
+ serving contract at: 0xefEf6DffdB1a6096FE0A98E8a4c407fB64Ca680B
2021-01-14 16:53:44,360 [tc.cpp:109] INFO  - Enclave 4359391805442 created
2021-01-14 16:53:44,366 [tc.cpp:127] INFO  - using wallet address at 0x495C60DEFDB81F719B7949114F84E65AF8FACF86
2021-01-14 16:53:44,366 [tc.cpp:128] INFO  - using hybrid pubkey: BLtIrjcmxXNzRKVLNGP+xJnLEIp9EboTe6PH0EO9bX4UmU9gRio/kVUHSbsq5UEfIrf5vueZVqRjwwitUI81V98=
2021-01-14 16:53:44,368 [tc.cpp:171] INFO  - TC service listening on 0.0.0.0:8123
[DEBG] (event_handler.cpp:167) serving tc address: 0xefEf6DffdB1a6096FE0A98E8a4c407fB64Ca680B
[NOTI] (event_handler.cpp:379) DCMMC: SQL start!

[NOTI] (sql_scrapers.cpp:33) Raw SQL code='{"test sql": "SELECT AVG(Price) FROM Products;", "test sql": "SELECT AVG(Price) FROM Products;", "test sql": "SELECT AVG(Price) FROM Products;", }00000000000000'
[ LOG] (tls_client_tiny.cpp:286) connecting over TCP: mct.etherscan.com:443...
[ LOG] (tls_client_tiny.cpp:301) Setting up the SSL/TLS structure...
[ LOG] (tls_client_tiny.cpp:349) Performing the SSL/TLS handshake
ssl_tls.c:6303: |2| => handshake
ssl_cli.c:3264: |2| client state: 0
ssl_tls.c:2429: |2| => flush output
ssl_tls.c:2441: |2| <= flush output
ssl_cli.c:3264: |2| client state: 1
ssl_tls.c:2429: |2| => flush output
ssl_tls.c:2441: |2| <= flush output
ssl_cli.c:0712: |2| => write client hello
ssl_cli.c:0750: |3| client hello, max version: [3:3]
ssl_cli.c:0812: |3| client hello, session id len.: 0
ssl_cli.c:0880: |3| client hello, add ciphersuite: c02c
ssl_cli.c:0880: |3| client hello, add ciphersuite: c030
ssl_cli.c:0880: |3| client hello, add ciphersuite: 009f
ssl_cli.c:0880: |3| client hello, add ciphersuite: c0ad
ssl_cli.c:0880: |3| client hello, add ciphersuite: c09f
ssl_cli.c:0880: |3| client hello, add ciphersuite: c024
ssl_cli.c:0880: |3| client hello, add ciphersuite: c028
ssl_cli.c:0880: |3| client hello, add ciphersuite: 006b
ssl_cli.c:0880: |3| client hello, add ciphersuite: c00a
ssl_cli.c:0880: |3| client hello, add ciphersuite: c014
ssl_cli.c:0880: |3| client hello, add ciphersuite: 0039
ssl_cli.c:0880: |3| client hello, add ciphersuite: c0af
ssl_cli.c:0880: |3| client hello, add ciphersuite: c0a3
ssl_cli.c:0880: |3| client hello, add ciphersuite: c087
ssl_cli.c:0880: |3| client hello, add ciphersuite: c08b
ssl_cli.c:0880: |3| client hello, add ciphersuite: c07d
ssl_cli.c:0880: |3| client hello, add ciphersuite: c073
ssl_cli.c:0880: |3| client hello, add ciphersuite: c077
ssl_cli.c:0880: |3| client hello, add ciphersuite: 00c4
ssl_cli.c:0880: |3| client hello, add ciphersuite: 0088
ssl_cli.c:0880: |3| client hello, add ciphersuite: c02b
ssl_cli.c:0880: |3| client hello, add ciphersuite: c02f
ssl_cli.c:0880: |3| client hello, add ciphersuite: 009e
ssl_cli.c:0880: |3| client hello, add ciphersuite: c0ac
ssl_cli.c:0880: |3| client hello, add ciphersuite: c09e
ssl_cli.c:0880: |3| client hello, add ciphersuite: c023
ssl_cli.c:0880: |3| client hello, add ciphersuite: c027
ssl_cli.c:0880: |3| client hello, add ciphersuite: 0067
ssl_cli.c:0880: |3| client hello, add ciphersuite: c009
ssl_cli.c:0880: |3| client hello, add ciphersuite: c013
ssl_cli.c:0880: |3| client hello, add ciphersuite: 0033
ssl_cli.c:0880: |3| client hello, add ciphersuite: c0ae
ssl_cli.c:0880: |3| client hello, add ciphersuite: c0a2
ssl_cli.c:0880: |3| client hello, add ciphersuite: c086
ssl_cli.c:0880: |3| client hello, add ciphersuite: c08a
ssl_cli.c:0880: |3| client hello, add ciphersuite: c07c
ssl_cli.c:0880: |3| client hello, add ciphersuite: c072
ssl_cli.c:0880: |3| client hello, add ciphersuite: c076
ssl_cli.c:0880: |3| client hello, add ciphersuite: 00be
ssl_cli.c:0880: |3| client hello, add ciphersuite: 0045
ssl_cli.c:0880: |3| client hello, add ciphersuite: c008
ssl_cli.c:0880: |3| client hello, add ciphersuite: c012
ssl_cli.c:0880: |3| client hello, add ciphersuite: 0016
ssl_cli.c:0880: |3| client hello, add ciphersuite: 00ab
ssl_cli.c:0880: |3| client hello, add ciphersuite: c0a7
ssl_cli.c:0880: |3| client hello, add ciphersuite: c038
ssl_cli.c:0880: |3| client hello, add ciphersuite: 00b3
ssl_cli.c:0880: |3| client hello, add ciphersuite: c036
ssl_cli.c:0880: |3| client hello, add ciphersuite: 0091
ssl_cli.c:0880: |3| client hello, add ciphersuite: c091
ssl_cli.c:0880: |3| client hello, add ciphersuite: c09b
ssl_cli.c:0880: |3| client hello, add ciphersuite: c097
ssl_cli.c:0880: |3| client hello, add ciphersuite: c0ab
ssl_cli.c:0880: |3| client hello, add ciphersuite: 00aa
ssl_cli.c:0880: |3| client hello, add ciphersuite: c0a6
ssl_cli.c:0880: |3| client hello, add ciphersuite: c037
ssl_cli.c:0880: |3| client hello, add ciphersuite: 00b2
ssl_cli.c:0880: |3| client hello, add ciphersuite: c035
ssl_cli.c:0880: |3| client hello, add ciphersuite: 0090
ssl_cli.c:0880: |3| client hello, add ciphersuite: c090
ssl_cli.c:0880: |3| client hello, add ciphersuite: c096
ssl_cli.c:0880: |3| client hello, add ciphersuite: c09a
ssl_cli.c:0880: |3| client hello, add ciphersuite: c0aa
ssl_cli.c:0880: |3| client hello, add ciphersuite: c034
ssl_cli.c:0880: |3| client hello, add ciphersuite: 008f
ssl_cli.c:0880: |3| client hello, add ciphersuite: 009d
ssl_cli.c:0880: |3| client hello, add ciphersuite: c09d
ssl_cli.c:0880: |3| client hello, add ciphersuite: 003d
ssl_cli.c:0880: |3| client hello, add ciphersuite: 0035
ssl_cli.c:0880: |3| client hello, add ciphersuite: c032
ssl_cli.c:0880: |3| client hello, add ciphersuite: c02a
ssl_cli.c:0880: |3| client hello, add ciphersuite: c00f
ssl_cli.c:0880: |3| client hello, add ciphersuite: c02e
ssl_cli.c:0880: |3| client hello, add ciphersuite: c026
ssl_cli.c:0880: |3| client hello, add ciphersuite: c005
ssl_cli.c:0880: |3| client hello, add ciphersuite: c0a1
ssl_cli.c:0880: |3| client hello, add ciphersuite: c07b
ssl_cli.c:0880: |3| client hello, add ciphersuite: 00c0
ssl_cli.c:0880: |3| client hello, add ciphersuite: 0084
ssl_cli.c:0880: |3| client hello, add ciphersuite: c08d
ssl_cli.c:0880: |3| client hello, add ciphersuite: c079
ssl_cli.c:0880: |3| client hello, add ciphersuite: c089
ssl_cli.c:0880: |3| client hello, add ciphersuite: c075
ssl_cli.c:0880: |3| client hello, add ciphersuite: 009c
ssl_cli.c:0880: |3| client hello, add ciphersuite: c09c
ssl_cli.c:0880: |3| client hello, add ciphersuite: 003c
ssl_cli.c:0880: |3| client hello, add ciphersuite: 002f
ssl_cli.c:0880: |3| client hello, add ciphersuite: c031
ssl_cli.c:0880: |3| client hello, add ciphersuite: c029
ssl_cli.c:0880: |3| client hello, add ciphersuite: c00e
ssl_cli.c:0880: |3| client hello, add ciphersuite: c02d
ssl_cli.c:0880: |3| client hello, add ciphersuite: c025
ssl_cli.c:0880: |3| client hello, add ciphersuite: c004
ssl_cli.c:0880: |3| client hello, add ciphersuite: c0a0
ssl_cli.c:0880: |3| client hello, add ciphersuite: c07a
ssl_cli.c:0880: |3| client hello, add ciphersuite: 00ba
ssl_cli.c:0880: |3| client hello, add ciphersuite: 0041
ssl_cli.c:0880: |3| client hello, add ciphersuite: c08c
ssl_cli.c:0880: |3| client hello, add ciphersuite: c078
ssl_cli.c:0880: |3| client hello, add ciphersuite: c088
ssl_cli.c:0880: |3| client hello, add ciphersuite: c074
ssl_cli.c:0880: |3| client hello, add ciphersuite: 000a
ssl_cli.c:0880: |3| client hello, add ciphersuite: c00d
ssl_cli.c:0880: |3| client hello, add ciphersuite: c003
ssl_cli.c:0880: |3| client hello, add ciphersuite: 00ad
ssl_cli.c:0880: |3| client hello, add ciphersuite: 00b7
ssl_cli.c:0880: |3| client hello, add ciphersuite: 0095
ssl_cli.c:0880: |3| client hello, add ciphersuite: c093
ssl_cli.c:0880: |3| client hello, add ciphersuite: c099
ssl_cli.c:0880: |3| client hello, add ciphersuite: 00ac
ssl_cli.c:0880: |3| client hello, add ciphersuite: 00b6
ssl_cli.c:0880: |3| client hello, add ciphersuite: 0094
ssl_cli.c:0880: |3| client hello, add ciphersuite: c092
ssl_cli.c:0880: |3| client hello, add ciphersuite: c098
ssl_cli.c:0880: |3| client hello, add ciphersuite: 0093
ssl_cli.c:0880: |3| client hello, add ciphersuite: 00a9
ssl_cli.c:0880: |3| client hello, add ciphersuite: c0a5
ssl_cli.c:0880: |3| client hello, add ciphersuite: 00af
ssl_cli.c:0880: |3| client hello, add ciphersuite: 008d
ssl_cli.c:0880: |3| client hello, add ciphersuite: c08f
ssl_cli.c:0880: |3| client hello, add ciphersuite: c095
ssl_cli.c:0880: |3| client hello, add ciphersuite: c0a9
ssl_cli.c:0880: |3| client hello, add ciphersuite: 00a8
ssl_cli.c:0880: |3| client hello, add ciphersuite: c0a4
ssl_cli.c:0880: |3| client hello, add ciphersuite: 00ae
ssl_cli.c:0880: |3| client hello, add ciphersuite: 008c
ssl_cli.c:0880: |3| client hello, add ciphersuite: c08e
ssl_cli.c:0880: |3| client hello, add ciphersuite: c094
ssl_cli.c:0880: |3| client hello, add ciphersuite: c0a8
ssl_cli.c:0880: |3| client hello, add ciphersuite: 008b
ssl_cli.c:0913: |3| client hello, got 131 ciphersuites
ssl_cli.c:0944: |3| client hello, compress len.: 1
ssl_cli.c:0946: |3| client hello, compress alg.: 0
ssl_cli.c:0072: |3| client hello, adding server name extension: mct.etherscan.com
ssl_cli.c:0178: |3| client hello, adding signature_algorithms extension
ssl_cli.c:0263: |3| client hello, adding supported_elliptic_curves extension
ssl_cli.c:0321: |3| client hello, adding supported_point_formats extension
ssl_cli.c:0503: |3| client hello, adding encrypt_then_mac extension
ssl_cli.c:0537: |3| client hello, adding extended_master_secret extension
ssl_cli.c:0570: |3| client hello, adding session ticket extension
ssl_cli.c:1018: |3| client hello, total extension length: 98
ssl_tls.c:2714: |2| => write record
ssl_tls.c:2849: |3| output record: msgtype = 22, version = [3:1], msglen = 405
ssl_tls.c:2429: |2| => flush output
ssl_tls.c:2448: |2| message length: 410, out_left: 410
ssl_tls.c:2473: |2| <= flush output
ssl_tls.c:2861: |2| <= write record
ssl_cli.c:1044: |2| <= write client hello
ssl_cli.c:3264: |2| client state: 2
ssl_tls.c:2429: |2| => flush output
ssl_tls.c:2441: |2| <= flush output
ssl_cli.c:1396: |2| => parse server hello
ssl_tls.c:3739: |2| => read record
ssl_tls.c:2221: |2| => fetch input
ssl_tls.c:2379: |2| in_left: 0, nb_want: 5
ssl_tls.c:2403: |2| in_left: 0, nb_want: 5
ssl_tls.c:2416: |2| <= fetch input
ssl_tls.c:3495: |3| input record: msgtype = 22, version = [3:3], msglen = 67
ssl_tls.c:2221: |2| => fetch input
ssl_tls.c:2379: |2| in_left: 5, nb_want: 72
ssl_tls.c:2403: |2| in_left: 5, nb_want: 72
ssl_tls.c:2416: |2| <= fetch input
ssl_tls.c:3100: |3| handshake message: msglen = 67, type = 2, hslen = 67
ssl_tls.c:3976: |2| <= read record
ssl_cli.c:1495: |3| server hello, current time: 1610643232
ssl_cli.c:1572: |3| server hello, session id len.: 0
ssl_cli.c:1609: |3| no session has been resumed
ssl_cli.c:1611: |3| server hello, chosen ciphersuite: c02b
ssl_cli.c:1612: |3| server hello, compress alg.: 0
ssl_cli.c:1626: |3| server hello, chosen ciphersuite: TLS-ECDHE-ECDSA-WITH-AES-128-GCM-SHA256
ssl_cli.c:1657: |2| server hello, total extension length: 23
ssl_cli.c:1791: |3| unknown extension found: 0 (ignoring)
ssl_cli.c:1727: |3| found extended_master_secret extension
ssl_cli.c:1675: |3| found renegotiation extension
ssl_cli.c:1754: |3| found supported_point_formats extension
ssl_cli.c:1219: |4| point format selected: 0
ssl_cli.c:1740: |3| found session_ticket extension
ssl_cli.c:1845: |2| <= parse server hello
ssl_cli.c:3264: |2| client state: 3
ssl_tls.c:2429: |2| => flush output
ssl_tls.c:2441: |2| <= flush output
ssl_tls.c:4195: |2| => parse certificate
ssl_tls.c:3739: |2| => read record
ssl_tls.c:2221: |2| => fetch input
ssl_tls.c:2379: |2| in_left: 0, nb_want: 5
ssl_tls.c:2403: |2| in_left: 0, nb_want: 5
ssl_tls.c:2416: |2| <= fetch input
ssl_tls.c:3495: |3| input record: msgtype = 22, version = [3:3], msglen = 2214
ssl_tls.c:2221: |2| => fetch input
ssl_tls.c:2379: |2| in_left: 5, nb_want: 2219
ssl_tls.c:2403: |2| in_left: 5, nb_want: 2219
ssl_tls.c:2416: |2| <= fetch input
ssl_tls.c:3100: |3| handshake message: msglen = 2214, type = 11, hslen = 2214
ssl_tls.c:3976: |2| <= read record
ssl_tls.c:4462: |2| <= parse certificate
ssl_cli.c:3264: |2| client state: 4
ssl_tls.c:2429: |2| => flush output
ssl_tls.c:2441: |2| <= flush output
ssl_cli.c:2181: |2| => parse server key exchange
ssl_tls.c:3739: |2| => read record
ssl_tls.c:2221: |2| => fetch input
ssl_tls.c:2379: |2| in_left: 0, nb_want: 5
ssl_tls.c:2403: |2| in_left: 0, nb_want: 5
ssl_tls.c:2416: |2| <= fetch input
ssl_tls.c:3495: |3| input record: msgtype = 22, version = [3:3], msglen = 147
ssl_tls.c:2221: |2| => fetch input
ssl_tls.c:2379: |2| in_left: 5, nb_want: 152
ssl_tls.c:2403: |2| in_left: 5, nb_want: 152
ssl_tls.c:2416: |2| <= fetch input
ssl_tls.c:3100: |3| handshake message: msglen = 147, type = 12, hslen = 147
ssl_tls.c:3976: |2| <= read record
ssl_cli.c:1905: |2| ECDH curve: secp256r1
ssl_cli.c:2124: |2| Server used SignatureAlgorithm 3
ssl_cli.c:2125: |2| Server used HashAlgorithm 4
ssl_cli.c:2499: |2| <= parse server key exchange
ssl_cli.c:3264: |2| client state: 5
ssl_tls.c:2429: |2| => flush output
ssl_tls.c:2441: |2| <= flush output
ssl_cli.c:2537: |2| => parse certificate request
ssl_tls.c:3739: |2| => read record
ssl_tls.c:2221: |2| => fetch input
ssl_tls.c:2379: |2| in_left: 0, nb_want: 5
ssl_tls.c:2403: |2| in_left: 0, nb_want: 5
ssl_tls.c:2416: |2| <= fetch input
ssl_tls.c:3495: |3| input record: msgtype = 22, version = [3:3], msglen = 4
ssl_tls.c:2221: |2| => fetch input
ssl_tls.c:2379: |2| in_left: 5, nb_want: 9
ssl_tls.c:2403: |2| in_left: 5, nb_want: 9
ssl_tls.c:2416: |2| <= fetch input
ssl_tls.c:3100: |3| handshake message: msglen = 4, type = 14, hslen = 4
ssl_tls.c:3976: |2| <= read record
ssl_cli.c:2574: |3| got no certificate request
ssl_cli.c:2666: |2| <= parse certificate request
ssl_cli.c:3264: |2| client state: 6
ssl_tls.c:2429: |2| => flush output
ssl_tls.c:2441: |2| <= flush output
ssl_cli.c:2679: |2| => parse server hello done
ssl_cli.c:2711: |2| <= parse server hello done
ssl_cli.c:3264: |2| client state: 7
ssl_tls.c:2429: |2| => flush output
ssl_tls.c:2441: |2| <= flush output
ssl_tls.c:4079: |2| => write certificate
ssl_tls.c:4096: |2| <= skip write certificate
ssl_cli.c:3264: |2| client state: 8
ssl_tls.c:2429: |2| => flush output
ssl_tls.c:2441: |2| <= flush output
ssl_cli.c:2722: |2| => write client key exchange
ssl_tls.c:2714: |2| => write record
ssl_tls.c:2849: |3| output record: msgtype = 22, version = [3:3], msglen = 70
ssl_tls.c:2429: |2| => flush output
ssl_tls.c:2448: |2| message length: 75, out_left: 75
ssl_tls.c:2473: |2| <= flush output
ssl_tls.c:2861: |2| <= write record
ssl_cli.c:2967: |2| <= write client key exchange
ssl_cli.c:3264: |2| client state: 9
ssl_tls.c:2429: |2| => flush output
ssl_tls.c:2441: |2| <= flush output
ssl_cli.c:3014: |2| => write certificate verify
ssl_tls.c:0502: |2| => derive keys
ssl_tls.c:0588: |3| using extended master secret
ssl_tls.c:1047: |2| => calc verify sha256
ssl_tls.c:1053: |2| <= calc verify
ssl_tls.c:0668: |3| ciphersuite = TLS-ECDHE-ECDSA-WITH-AES-128-GCM-SHA256
ssl_tls.c:0768: |3| keylen: 16, minlen: 24, ivlen: 12, maclen: 0
ssl_tls.c:0958: |2| <= derive keys
ssl_cli.c:3035: |2| <= skip write certificate verify
ssl_cli.c:3264: |2| client state: 10
ssl_tls.c:2429: |2| => flush output
ssl_tls.c:2441: |2| <= flush output
ssl_tls.c:4478: |2| => write change cipher spec
ssl_tls.c:2714: |2| => write record
ssl_tls.c:2849: |3| output record: msgtype = 20, version = [3:3], msglen = 1
ssl_tls.c:2429: |2| => flush output
ssl_tls.c:2448: |2| message length: 6, out_left: 6
ssl_tls.c:2473: |2| <= flush output
ssl_tls.c:2861: |2| <= write record
ssl_tls.c:4492: |2| <= write change cipher spec
ssl_cli.c:3264: |2| client state: 11
ssl_tls.c:2429: |2| => flush output
ssl_tls.c:2441: |2| <= flush output
ssl_tls.c:5003: |2| => write finished
ssl_tls.c:4828: |2| => calc  finished tls sha256
ssl_tls.c:4858: |2| <= calc  finished
ssl_tls.c:5052: |3| switching to new transform spec for outbound data
ssl_tls.c:2714: |2| => write record
ssl_tls.c:1259: |2| => encrypt buf
ssl_tls.c:1413: |3| before encrypt: msglen = 24, including 0 bytes of padding
ssl_tls.c:1573: |2| <= encrypt buf
ssl_tls.c:2849: |3| output record: msgtype = 22, version = [3:3], msglen = 40
ssl_tls.c:2429: |2| => flush output
ssl_tls.c:2448: |2| message length: 45, out_left: 45
ssl_tls.c:2473: |2| <= flush output
ssl_tls.c:2861: |2| <= write record
ssl_tls.c:5107: |2| <= write finished
ssl_cli.c:3264: |2| client state: 12
ssl_tls.c:2429: |2| => flush output
ssl_tls.c:2441: |2| <= flush output
ssl_cli.c:3165: |2| => parse new session ticket
ssl_tls.c:3739: |2| => read record
ssl_tls.c:2221: |2| => fetch input
ssl_tls.c:2379: |2| in_left: 0, nb_want: 5
ssl_tls.c:2403: |2| in_left: 0, nb_want: 5
ssl_tls.c:2416: |2| <= fetch input
ssl_tls.c:3495: |3| input record: msgtype = 22, version = [3:3], msglen = 202
ssl_tls.c:2221: |2| => fetch input
ssl_tls.c:2379: |2| in_left: 5, nb_want: 207
ssl_tls.c:2403: |2| in_left: 5, nb_want: 207
ssl_tls.c:2416: |2| <= fetch input
ssl_tls.c:3100: |3| handshake message: msglen = 202, type = 4, hslen = 202
ssl_tls.c:3976: |2| <= read record
ssl_cli.c:3209: |3| ticket length: 192
ssl_cli.c:3245: |3| ticket in use, discarding session id
ssl_cli.c:3248: |2| <= parse new session ticket
ssl_cli.c:3264: |2| client state: 12
ssl_tls.c:2429: |2| => flush output
ssl_tls.c:2441: |2| <= flush output
ssl_tls.c:4501: |2| => parse change cipher spec
ssl_tls.c:3739: |2| => read record
ssl_tls.c:2221: |2| => fetch input
ssl_tls.c:2379: |2| in_left: 0, nb_want: 5
ssl_tls.c:2403: |2| in_left: 0, nb_want: 5
ssl_tls.c:2416: |2| <= fetch input
ssl_tls.c:3495: |3| input record: msgtype = 20, version = [3:3], msglen = 1
ssl_tls.c:2221: |2| => fetch input
ssl_tls.c:2379: |2| in_left: 5, nb_want: 6
ssl_tls.c:2403: |2| in_left: 5, nb_want: 6
ssl_tls.c:2416: |2| <= fetch input
ssl_tls.c:3976: |2| <= read record
ssl_tls.c:4525: |3| switching to new transform spec for inbound data
ssl_tls.c:4571: |2| <= parse change cipher spec
ssl_cli.c:3264: |2| client state: 13
ssl_tls.c:2429: |2| => flush output
ssl_tls.c:2441: |2| <= flush output
ssl_tls.c:5124: |2| => parse finished
ssl_tls.c:4828: |2| => calc  finished tls sha256
ssl_tls.c:4858: |2| <= calc  finished
ssl_tls.c:3739: |2| => read record
ssl_tls.c:2221: |2| => fetch input
ssl_tls.c:2379: |2| in_left: 0, nb_want: 5
ssl_tls.c:2403: |2| in_left: 0, nb_want: 5
ssl_tls.c:2416: |2| <= fetch input
ssl_tls.c:3495: |3| input record: msgtype = 22, version = [3:3], msglen = 40
ssl_tls.c:2221: |2| => fetch input
ssl_tls.c:2379: |2| in_left: 5, nb_want: 45
ssl_tls.c:2403: |2| in_left: 5, nb_want: 45
ssl_tls.c:2416: |2| <= fetch input
ssl_tls.c:1589: |2| => decrypt buf
ssl_tls.c:2064: |2| <= decrypt buf
ssl_tls.c:3100: |3| handshake message: msglen = 16, type = 20, hslen = 16
ssl_tls.c:3976: |2| <= read record
ssl_tls.c:5186: |2| <= parse finished
ssl_cli.c:3264: |2| client state: 14
ssl_tls.c:2429: |2| => flush output
ssl_tls.c:2441: |2| <= flush output
ssl_cli.c:3375: |2| handshake: done
ssl_cli.c:3264: |2| client state: 15
ssl_tls.c:2429: |2| => flush output
ssl_tls.c:2441: |2| <= flush output
ssl_tls.c:4941: |3| => handshake wrapup
ssl_tls.c:4914: |3| => handshake wrapup: final free
ssl_tls.c:4934: |3| <= handshake wrapup: final free
ssl_tls.c:4996: |3| <= handshake wrapup
ssl_tls.c:6313: |2| <= handshake
[ LOG] (tls_client_tiny.cpp:378) Hand shake succeeds: [TLSv1.2, TLS-ECDHE-ECDSA-WITH-AES-128-GCM-SHA256]
[ LOG] (tls_client_tiny.cpp:381) Record expansion is [29]
[ LOG] (tls_client_tiny.cpp:387) Maximum fragment length is [16384]
[DEBG] (tls_client_tiny.cpp:265) Request: GET /www/d/asyncspces.php?zones=6&prefix=revive-0-&loc=https%3A%2F%2Fetherscan.io%2F&referer=https%3A%2F%2Fwww.google.com%2F HTTP/1.1\r\nAccept: text/html\r\nHost: mct.etherscan.com\r\n\r\n
ssl_tls.c:6822: |2| => write
ssl_tls.c:2714: |2| => write record
ssl_tls.c:1259: |2| => encrypt buf
ssl_tls.c:1413: |3| before encrypt: msglen = 189, including 0 bytes of padding
ssl_tls.c:1573: |2| <= encrypt buf
ssl_tls.c:2849: |3| output record: msgtype = 23, version = [3:3], msglen = 205
ssl_tls.c:2429: |2| => flush output
ssl_tls.c:2448: |2| message length: 210, out_left: 210
ssl_tls.c:2473: |2| <= flush output
ssl_tls.c:2861: |2| <= write record
ssl_tls.c:6850: |2| <= write
ssl_tls.c:6481: |2| => read
ssl_tls.c:3739: |2| => read record
ssl_tls.c:2221: |2| => fetch input
ssl_tls.c:2379: |2| in_left: 0, nb_want: 5
ssl_tls.c:2403: |2| in_left: 0, nb_want: 5
ssl_tls.c:2416: |2| <= fetch input
ssl_tls.c:3495: |3| input record: msgtype = 23, version = [3:3], msglen = 1393
ssl_tls.c:2221: |2| => fetch input
ssl_tls.c:2379: |2| in_left: 5, nb_want: 1398
ssl_tls.c:2403: |2| in_left: 5, nb_want: 1398
ssl_tls.c:2416: |2| <= fetch input
ssl_tls.c:1589: |2| => decrypt buf
ssl_tls.c:2064: |2| <= decrypt buf
ssl_tls.c:3976: |2| <= read record
ssl_tls.c:6721: |2| <= read
[ LOG] (tls_client_tiny.cpp:410) mbedtls_ssl_read returns 1369 (Content-Length=-1)
[ LOG] (tls_client_tiny.cpp:140) (4, 29) dateThu, 14 Jan 2021 16:53:52 GMT&prefix=revive-0-&loc=https%3A%8w¸ÑQÑ: Thu, 14 Jan 2021 16:53:52 GMT&prefix=revive-0-&loc=https%3A%8w¸ÑQÑ
[ LOG] (tls_client_tiny.cpp:140) (12, 16) content-typeapplication/json2 GMT&prefix=revive-0-&loc=https%3A%8w¸ÑQÑ: application/json2 GMT&prefix=revive-0-&loc=https%3A%8w¸ÑQÑ
[ LOG] (tls_client_tiny.cpp:140) (14, 3) content-length856cation/json2 GMT&prefix=revive-0-&loc=https%3A%8w¸ÑQÑ: 856cation/json2 GMT&prefix=revive-0-&loc=https%3A%8w¸ÑQÑ
[ LOG] (tls_client_tiny.cpp:140) (10, 10) connectionkeep-aliveion/json2 GMT&prefix=revive-0-&loc=https%3A%8w¸ÑQÑ: keep-aliveion/json2 GMT&prefix=revive-0-&loc=https%3A%8w¸ÑQÑ
[ LOG] (tls_client_tiny.cpp:140) (10, 152) set-cookie__cfduid=d69134265d5f30e1563c66a7b55318b881610643232; expires=Sat, 13-Feb-21 16:53:52 GMT; path=/; domain=.etherscan.com; HttpOnly; SameSite=Lax; Secure: mct.etherscan.com\r\n\r\n: __cfduid=d69134265d5f30e1563c66a7b55318b881610643232; expires=Sat, 13-Feb-21 16:53:52 GMT; path=/; domain=.etherscan.com; HttpOnly; SameSite=Lax; Secure: mct.etherscan.com\r\n\r\n
[ LOG] (tls_client_tiny.cpp:140) (6, 8) pragmano-cacheduid=d69134265d5f30e1563c66a7b55318b881610643232; expires=Sat, 13-Feb-21 16:53:52 GMT; path=/; domain=.etherscan.com; HttpOnly; SameSite=Lax; Secure: mct.etherscan.com\r\n\r\n: no-cacheduid=d69134265d5f30e1563c66a7b55318b881610643232; expires=Sat, 13-Feb-21 16:53:52 GMT; path=/; domain=.etherscan.com; HttpOnly; SameSite=Lax; Secure: mct.etherscan.com\r\n\r\n
[ LOG] (tls_client_tiny.cpp:140) (13, 35) cache-controlno-cache, no-store, must-revalidate8b881610643232; expires=Sat, 13-Feb-21 16:53:52 GMT; path=/; domain=.etherscan.com; HttpOnly; SameSite=Lax; Secure: mct.etherscan.com\r\n\r\n: no-cache, no-store, must-revalidate8b881610643232; expires=Sat, 13-Feb-21 16:53:52 GMT; path=/; domain=.etherscan.com; HttpOnly; SameSite=Lax; Secure: mct.etherscan.com\r\n\r\n
[ LOG] (tls_client_tiny.cpp:140) (7, 1) expires0ntrolno-cache, no-store, must-revalidate8b881610643232; expires=Sat, 13-Feb-21 16:53:52 GMT; path=/; domain=.etherscan.com; HttpOnly; SameSite=Lax; Secure: mct.etherscan.com\r\n\r\n: 0ntrolno-cache, no-store, must-revalidate8b881610643232; expires=Sat, 13-Feb-21 16:53:52 GMT; path=/; domain=.etherscan.com; HttpOnly; SameSite=Lax; Secure: mct.etherscan.com\r\n\r\n
[ LOG] (tls_client_tiny.cpp:140) (27, 1) access-control-allow-origin*ore, must-revalidate8b881610643232; expires=Sat, 13-Feb-21 16:53:52 GMT; path=/; domain=.etherscan.com; HttpOnly; SameSite=Lax; Secure: mct.etherscan.com\r\n\r\n: *ore, must-revalidate8b881610643232; expires=Sat, 13-Feb-21 16:53:52 GMT; path=/; domain=.etherscan.com; HttpOnly; SameSite=Lax; Secure: mct.etherscan.com\r\n\r\n
[ LOG] (tls_client_tiny.cpp:140) (3, 28) p3pCP="CUR ADM OUR NOR STA NID", must-revalidate8b881610643232; expires=Sat, 13-Feb-21 16:53:52 GMT; path=/; domain=.etherscan.com; HttpOnly; SameSite=Lax; Secure: mct.etherscan.com\r\n\r\n: CP="CUR ADM OUR NOR STA NID", must-revalidate8b881610643232; expires=Sat, 13-Feb-21 16:53:52 GMT; path=/; domain=.etherscan.com; HttpOnly; SameSite=Lax; Secure: mct.etherscan.com\r\n\r\n
[ LOG] (tls_client_tiny.cpp:140) (10, 161) set-cookieOAGEO=2%7CCN%7CAS%7C%7CShenzhen%7C%7C22.5333%7C114.1333%7C5%7CAsia%2FShanghai%7C%7CGD%7C%7C%7C%7C%7C%7C%7C%7C%7C%7C%7C%7C%7C%7C%7C; path=/; samesite=none; secureerscan.com\r\n\r\n: OAGEO=2%7CCN%7CAS%7C%7CShenzhen%7C%7C22.5333%7C114.1333%7C5%7CAsia%2FShanghai%7C%7CGD%7C%7C%7C%7C%7C%7C%7C%7C%7C%7C%7C%7C%7C%7C%7C; path=/; samesite=none; secureerscan.com\r\n\r\n
[ LOG] (tls_client_tiny.cpp:140) (10, 125) set-cookieOAID=e5268ae2f1e99f91935ea05200864599; expires=Fri, 14-Jan-2022 16:53:52 GMT; Max-Age=31536000; path=/; samesite=none; secure7C%7C; path=/; samesite=none; secureerscan.com\r\n\r\n: OAID=e5268ae2f1e99f91935ea05200864599; expires=Fri, 14-Jan-2022 16:53:52 GMT; Max-Age=31536000; path=/; samesite=none; secure7C%7C; path=/; samesite=none; secureerscan.com\r\n\r\n
[ LOG] (tls_client_tiny.cpp:140) (15, 7) cf-cache-statusDYNAMIC2f1e99f91935ea05200864599; expires=Fri, 14-Jan-2022 16:53:52 GMT; Max-Age=31536000; path=/; samesite=none; secure7C%7C; path=/; samesite=none; secureerscan.com\r\n\r\n: DYNAMIC2f1e99f91935ea05200864599; expires=Fri, 14-Jan-2022 16:53:52 GMT; Max-Age=31536000; path=/; samesite=none; secure7C%7C; path=/; samesite=none; secureerscan.com\r\n\r\n
[ LOG] (tls_client_tiny.cpp:140) (13, 32) cf-request-id07a36a6ef2000004f37935f00000000199; expires=Fri, 14-Jan-2022 16:53:52 GMT; Max-Age=31536000; path=/; samesite=none; secure7C%7C; path=/; samesite=none; secureerscan.com\r\n\r\n: 07a36a6ef2000004f37935f00000000199; expires=Fri, 14-Jan-2022 16:53:52 GMT; Max-Age=31536000; path=/; samesite=none; secure7C%7C; path=/; samesite=none; secureerscan.com\r\n\r\n
[ LOG] (tls_client_tiny.cpp:140) (9, 87) expect-ctmax-age=604800, report-uri="https://report-uri.cloudflare.com/cdn-cgi/beacon/expect-ct"31536000; path=/; samesite=none; secure7C%7C; path=/; samesite=none; secureerscan.com\r\n\r\n: max-age=604800, report-uri="https://report-uri.cloudflare.com/cdn-cgi/beacon/expect-ct"31536000; path=/; samesite=none; secure7C%7C; path=/; samesite=none; secureerscan.com\r\n\r\n
[ LOG] (tls_client_tiny.cpp:140) (9, 225) report-to{"endpoints":[{"url":"https:\/\/a.nel.cloudflare.com\/report?s=ihjC8JsEVhRB7QaDbhzOx%2FmB3Z%2Bf8LDtZcf2Sh3SpYJvF62ktd2BtxEdzl5JqdZQA6WvIey%2FHSocRhMtAe2AO4BnQHDzV3v2K9xdLV8St%2BTIBw%3D%3D"}],"group":"cf-nel","max_age":604800}er=https%3A%2F%2Fwww.google.com%2F: {"endpoints":[{"url":"https:\/\/a.nel.cloudflare.com\/report?s=ihjC8JsEVhRB7QaDbhzOx%2FmB3Z%2Bf8LDtZcf2Sh3SpYJvF62ktd2BtxEdzl5JqdZQA6WvIey%2FHSocRhMtAe2AO4BnQHDzV3v2K9xdLV8St%2BTIBw%3D%3D"}],"group":"cf-nel","max_age":604800}er=https%3A%2F%2Fwww.google.com%2F
[ LOG] (tls_client_tiny.cpp:140) (3, 39) nel{"report_to":"cf-nel","max_age":604800}.nel.cloudflare.com\/report?s=ihjC8JsEVhRB7QaDbhzOx%2FmB3Z%2Bf8LDtZcf2Sh3SpYJvF62ktd2BtxEdzl5JqdZQA6WvIey%2FHSocRhMtAe2AO4BnQHDzV3v2K9xdLV8St%2BTIBw%3D%3D"}],"group":"cf-nel","max_age":604800}er=https%3A%2F%2Fwww.google.com%2F: {"report_to":"cf-nel","max_age":604800}.nel.cloudflare.com\/report?s=ihjC8JsEVhRB7QaDbhzOx%2FmB3Z%2Bf8LDtZcf2Sh3SpYJvF62ktd2BtxEdzl5JqdZQA6WvIey%2FHSocRhMtAe2AO4BnQHDzV3v2K9xdLV8St%2BTIBw%3D%3D"}],"group":"cf-nel","max_age":604800}er=https%3A%2F%2Fwww.google.com%2F
[ LOG] (tls_client_tiny.cpp:140) (6, 10) servercloudflare"cf-nel","max_age":604800}.nel.cloudflare.com\/report?s=ihjC8JsEVhRB7QaDbhzOx%2FmB3Z%2Bf8LDtZcf2Sh3SpYJvF62ktd2BtxEdzl5JqdZQA6WvIey%2FHSocRhMtAe2AO4BnQHDzV3v2K9xdLV8St%2BTIBw%3D%3D"}],"group":"cf-nel","max_age":604800}er=https%3A%2F%2Fwww.google.com%2F: cloudflare"cf-nel","max_age":604800}.nel.cloudflare.com\/report?s=ihjC8JsEVhRB7QaDbhzOx%2FmB3Z%2Bf8LDtZcf2Sh3SpYJvF62ktd2BtxEdzl5JqdZQA6WvIey%2FHSocRhMtAe2AO4BnQHDzV3v2K9xdLV8St%2BTIBw%3D%3D"}],"group":"cf-nel","max_age":604800}er=https%3A%2F%2Fwww.google.com%2F
[ LOG] (tls_client_tiny.cpp:140) (6, 20) cf-ray6118e02b1d0b04f3-LAXmax_age":604800}.nel.cloudflare.com\/report?s=ihjC8JsEVhRB7QaDbhzOx%2FmB3Z%2Bf8LDtZcf2Sh3SpYJvF62ktd2BtxEdzl5JqdZQA6WvIey%2FHSocRhMtAe2AO4BnQHDzV3v2K9xdLV8St%2BTIBw%3D%3D"}],"group":"cf-nel","max_age":604800}er=https%3A%2F%2Fwww.google.com%2F: 6118e02b1d0b04f3-LAXmax_age":604800}.nel.cloudflare.com\/report?s=ihjC8JsEVhRB7QaDbhzOx%2FmB3Z%2Bf8LDtZcf2Sh3SpYJvF62ktd2BtxEdzl5JqdZQA6WvIey%2FHSocRhMtAe2AO4BnQHDzV3v2K9xdLV8St%2BTIBw%3D%3D"}],"group":"cf-nel","max_age":604800}er=https%3A%2F%2Fwww.google.com%2F
[ LOG] (tls_client_tiny.cpp:444) http_need_more=1, n_data=0
ssl_tls.c:6481: |2| => read
ssl_tls.c:3739: |2| => read record
ssl_tls.c:2221: |2| => fetch input
ssl_tls.c:2379: |2| in_left: 0, nb_want: 5
ssl_tls.c:2403: |2| in_left: 0, nb_want: 5
ssl_tls.c:2416: |2| <= fetch input
ssl_tls.c:3495: |3| input record: msgtype = 23, version = [3:3], msglen = 782
ssl_tls.c:2221: |2| => fetch input
ssl_tls.c:2379: |2| in_left: 5, nb_want: 787
ssl_tls.c:2403: |2| in_left: 5, nb_want: 787
ssl_tls.c:2416: |2| <= fetch input
ssl_tls.c:1589: |2| => decrypt buf
ssl_tls.c:2064: |2| <= decrypt buf
ssl_tls.c:3976: |2| <= read record
ssl_tls.c:6721: |2| <= read
[ LOG] (tls_client_tiny.cpp:410) mbedtls_ssl_read returns 758 (Content-Length=758)
[ LOG] (tls_client_tiny.cpp:444) http_need_more=0, n_data=0
[DEBG] (tls_client_tiny.cpp:453) HTTP response len=856
[ LOG] (tls_client_tiny.cpp:461) Response body (len=856):
{"revive-0-0":{"html":"Sponsored:  &nbsp;<img src='https:\/\/etherscan.io\/images\/gen\/dotify_20.png' \/> <b> Dotify <\/b> - DeFi infrastructure for Polkadot. <a href='https:\/\/mct.etherscan.com\/www\/d\/ckes.php?oaparams=2__ebannerid=975__zoneid=6__cb=b8e7886a9e__oadest=https%3A%2F%2Fdotify.org%2F' rel='nofollow' title='Links to an External Advertiser site'target='_blank'> <b>Whitelist &\r\nairdrop registration is open!<\/b><\/a><div id='beacon_b8e7886a9e' style='position: absolute; left: 0px; top: 0px; visibility: hidden;'><img src='https:\/\/mct.etherscan.com\/www\/d\/lg.php?ebannerid=975&amp;campaignid=543&amp;zoneid=6&amp;loc=https%3A%2F%2Fetherscan.io%2F&amp;referer=https%3A%2F%2Fwww.google.com%2F&amp;cb=b8e7886a9e' width='0' height='0' alt='' style='width: 0px; height: 0px;' \/><\/div>","width":"0","height":"0","iframeFriendly":false}}
[NOTI] (sql_scrapers.cpp:126) Result={"revive-0-0":{"html":"Sponsored:  &nbsp;<img src='https:\/\/etherscan.io\/images\/gen\/dotify_20.png' \/> <b> Dotify <\/b> - DeFi infrastructure for Polkadot. <a href='https:\/\/mct.etherscan.com\/www\/d\/ckes.php?oaparams=2__ebannerid=975__zoneid=6__cb=b8e7886a9e__oadest=https%3A%2F%2Fdotify.org%2F' rel='nofollow' title='Links to an External Advertiser site'target='_blank'> <b>Whitelist &\r\nairdrop registration is open!<\/b><\/a><div id='beacon_b8e7886a9e' style='position: absolute; left: 0px; top: 0px; visibility: hidden;'><img src='https:\/\/mct.etherscan.com\/www\/d\/lg.php?ebannerid=975&amp;campaignid=543&amp;zoneid=6&amp;loc=https%3A%2F%2Fetherscan.io%2F&amp;referer=https%3A%2F%2Fwww.google.com%2F&amp;cb=b8e7886a9e' width='0' height='0' alt='' style='width: 0px; height: 0px;' \/><\/div>","width":"0","height":"0","iframeFriendly":false}}
ssl_tls.c:7022: |2| => free
ssl_tls.c:7087: |2| <= free
[NOTI] (sql_scrapers.cpp:39) sql result=856
[NOTI] (event_handler.cpp:393) (DCMMC) SQLScraper returned: {"revive-0-0":{"html":"Sponsored:  &nbsp;<img src='https:\/\/etherscan.io\/images\/gen\/dotify_20.png' \/> <b> Dotify <\/b> - DeFi infrastructure for Polkadot. <a href='https:\/\/mct.etherscan.com\/www\/d\/ckes.php?oaparams=2__ebannerid=975__zoneid=6__cb=b8e7886a9e__oadest=https%3A%2F%2Fdotify.org%2F' rel='nofollow' title='Links to an External Advertiser site'target='_blank'> <b>Whitelist &\r\nairdrop registration is open!<\/b><\/a><div id='beacon_b8e7886a9e' style='position: absolute; left: 0px; top: 0px; visibility: hidden;'><img src='https:\/\/mct.etherscan.com\/www\/d\/lg.php?ebannerid=975&amp;campaignid=543&amp;zoneid=6&amp;loc=https%3A%2F%2Fetherscan.io%2F&amp;referer=https%3A%2F%2Fwww.google.com%2F&amp;cb=b8e7886a9e' width='0' height='0' alt='' style='width: 0px; height: 0px;' \/><\/div>","width":"0","height":"0","iframeFriendly":false}}

[NOTI] (eth_transaction.cpp:158) forming transaction for nonce=3, id=1, type=0, date_len=160, err=0
[DEBG] (eth_transaction.cpp:243) done ABI encoding
func selector
0x0000:   48 7A 6E 32 C0 AB B9 42   84 6C C8 CA 81 B3 3D 17    Hzn2...B.l....=.
0x0010:   93 90 83 95 86 1C 48 5B   BF 71 9B CD 8A C7 05 D1    ......H[.q......
encoded data
0x0000:   48 7A 6E 32 00 00 00 00   00 00 00 00 00 00 00 00    Hzn2............
0x0010:   00 00 00 00 00 00 00 00   00 00 00 00 00 00 00 00    ................
0x0020:   00 00 00 01 8D EE D2 E0   7E C6 D1 6D 55 FE BC 83    ........~..mU...
0x0030:   0B DB EB A5 1B A9 A2 66   62 CD 08 A2 2A FD A1 B9    .......fb...*...
0x0040:   C8 BF A6 61 00 00 00 00   00 00 00 00 00 00 00 00    ...a............
0x0050:   00 00 00 00 00 00 00 00   00 00 00 00 00 00 00 00    ................
0x0060:   00 00 00 00 7B 22 72 65   76 69 76 65 2D 30 2D 30    ....{"revive-0-0
0x0070:   22 3A 7B 22 68 74 6D 6C   22 3A 22 53 70 6F 6E 73    ":{"html":"Spons
0x0080:   6F 72 65 64                                          ored            
nonce
0x0000:   03                                                   .               
gasPrice
0x0000:   0B A4 3B 74 00                                       ..;t.           
gas
0x0000:   2D C6 C0                                             -..             
receiveAddr
0x0000:   EF EF 6D FF DB 1A 60 96   FE 0A 98 E8 A4 C4 07 FB    ..m...`.........
0x0010:   64 CA 68 0B                                          d.h.            
value
data
0x0000:   48 7A 6E 32 00 00 00 00   00 00 00 00 00 00 00 00    Hzn2............
0x0010:   00 00 00 00 00 00 00 00   00 00 00 00 00 00 00 00    ................
0x0020:   00 00 00 01 8D EE D2 E0   7E C6 D1 6D 55 FE BC 83    ........~..mU...
0x0030:   0B DB EB A5 1B A9 A2 66   62 CD 08 A2 2A FD A1 B9    .......fb...*...
0x0040:   C8 BF A6 61 00 00 00 00   00 00 00 00 00 00 00 00    ...a............
0x0050:   00 00 00 00 00 00 00 00   00 00 00 00 00 00 00 00    ................
0x0060:   00 00 00 00 7B 22 72 65   76 69 76 65 2D 30 2D 30    ....{"revive-0-0
0x0070:   22 3A 7B 22 68 74 6D 6C   22 3A 22 53 70 6F 6E 73    ":{"html":"Spons
0x0080:   6F 72 65 64                                          ored            
[DEBG] (eth_transaction.cpp:276) rlpEncode done
tx w/o sig
0x0000:   F8 A7 03 85 0B A4 3B 74   00 83 2D C6 C0 94 EF EF    ......;t..-.....
0x0010:   6D FF DB 1A 60 96 FE 0A   98 E8 A4 C4 07 FB 64 CA    m...`.........d.
0x0020:   68 0B 80 B8 84 48 7A 6E   32 00 00 00 00 00 00 00    h....Hzn2.......
0x0030:   00 00 00 00 00 00 00 00   00 00 00 00 00 00 00 00    ................
0x0040:   00 00 00 00 00 00 00 00   01 8D EE D2 E0 7E C6 D1    .............~..
0x0050:   6D 55 FE BC 83 0B DB EB   A5 1B A9 A2 66 62 CD 08    mU..........fb..
0x0060:   A2 2A FD A1 B9 C8 BF A6   61 00 00 00 00 00 00 00    .*......a.......
0x0070:   00 00 00 00 00 00 00 00   00 00 00 00 00 00 00 00    ................
0x0080:   00 00 00 00 00 00 00 00   00 7B 22 72 65 76 69 76    .........{"reviv
0x0090:   65 2D 30 2D 30 22 3A 7B   22 68 74 6D 6C 22 3A 22    e-0-0":{"html":"
0x00A0:   53 70 6F 6E 73 6F 72 65   64                         Sponsored       
nonce
0x0000:   03                                                   .               
gasPrice
0x0000:   0B A4 3B 74 00                                       ..;t.           
gas
0x0000:   2D C6 C0                                             -..             
receiveAddr
0x0000:   EF EF 6D FF DB 1A 60 96   FE 0A 98 E8 A4 C4 07 FB    ..m...`.........
0x0010:   64 CA 68 0B                                          d.h.            
value
data
0x0000:   48 7A 6E 32 00 00 00 00   00 00 00 00 00 00 00 00    Hzn2............
0x0010:   00 00 00 00 00 00 00 00   00 00 00 00 00 00 00 00    ................
0x0020:   00 00 00 01 8D EE D2 E0   7E C6 D1 6D 55 FE BC 83    ........~..mU...
0x0030:   0B DB EB A5 1B A9 A2 66   62 CD 08 A2 2A FD A1 B9    .......fb...*...
0x0040:   C8 BF A6 61 00 00 00 00   00 00 00 00 00 00 00 00    ...a............
0x0050:   00 00 00 00 00 00 00 00   00 00 00 00 00 00 00 00    ................
0x0060:   00 00 00 00 7B 22 72 65   76 69 76 65 2D 30 2D 30    ....{"revive-0-0
0x0070:   22 3A 7B 22 68 74 6D 6C   22 3A 22 53 70 6F 6E 73    ":{"html":"Spons
0x0080:   6F 72 65 64                                          ored            
final tx
0x0000:   F8 EA 03 85 0B A4 3B 74   00 83 2D C6 C0 94 EF EF    ......;t..-.....
0x0010:   6D FF DB 1A 60 96 FE 0A   98 E8 A4 C4 07 FB 64 CA    m...`.........d.
0x0020:   68 0B 80 B8 84 48 7A 6E   32 00 00 00 00 00 00 00    h....Hzn2.......
0x0030:   00 00 00 00 00 00 00 00   00 00 00 00 00 00 00 00    ................
0x0040:   00 00 00 00 00 00 00 00   01 8D EE D2 E0 7E C6 D1    .............~..
0x0050:   6D 55 FE BC 83 0B DB EB   A5 1B A9 A2 66 62 CD 08    mU..........fb..
0x0060:   A2 2A FD A1 B9 C8 BF A6   61 00 00 00 00 00 00 00    .*......a.......
0x0070:   00 00 00 00 00 00 00 00   00 00 00 00 00 00 00 00    ................
0x0080:   00 00 00 00 00 00 00 00   00 7B 22 72 65 76 69 76    .........{"reviv
0x0090:   65 2D 30 2D 30 22 3A 7B   22 68 74 6D 6C 22 3A 22    e-0-0":{"html":"
0x00A0:   53 70 6F 6E 73 6F 72 65   64 1B A0 51 9A 46 CF 56    Sponsored..Q.F.V
0x00B0:   F8 86 9D 88 2D A4 09 0E   5C D6 96 A8 6E 28 3E 59    ....-...\...n(>Y
0x00C0:   AF A9 75 42 BF D5 D6 AF   AB 36 8E A0 63 30 1B 9B    ..uB.....6..c0..
0x00D0:   01 CF 56 5B CF FB 84 5D   9B 9B 29 CC DD E1 18 21    ..V[...]..)....!
0x00E0:   78 B8 10 D2 37 2C 6B B6   B7 87 F2 31                x...7,k....1    
[NOTI] (eth_transaction.cpp:335) finished transaction for nonce=3, id=1, type=0, date_len=160, err=0, total size=236B
2021-01-14 16:53:53,658 [RPC:-1] INFO  - ecall succeeds
2021-01-14 16:53:53,658 [RPC:85] INFO  - response tx: 0xF8EA03850BA43B7400832DC6C094EFEF6DFFDB1A6096FE0A98E8A4C407FB64CA680B80B884487A6E3200000000000000000000000000000000000000000000000000000000000000018DEED2E07EC6D16D55FEBC830BDBEBA51BA9A26662CD08A22AFDA1B9C8BFA66100000000000000000000000000000000000000000000000000000000000000007B227265766976652D302D30223A7B2268746D6C223A2253706F6E736F7265641BA0519A46CF56F8869D882DA4090E5CD696A86E283E59AFA97542BFD5D6AFAB368EA063301B9B01CF565BCFFB845D9B9B29CCDDE1182178B810D2372C6BB6B787F231
