2020-12-10 16:49:26,244 [tc.cpp:96] INFO  - config:
Using config file: /code/privatenet/config-privatenet-sim
+ using enclave image: /tc/enclave/enclave.debug.so
+ listening for TC relay at port: 8123
+ serving contract at: 0x8cfa5DCAD1ee0A21161483B6bA3b48141C5e1B69
2020-12-10 16:49:26,311 [tc.cpp:107] INFO  - Enclave 5574867550210 created
2020-12-10 16:49:26,316 [tc.cpp:123] INFO  - using wallet address at 0x734968449177250683184591756B457321B3D4AA
2020-12-10 16:49:26,316 [tc.cpp:124] INFO  - using hybrid pubkey: BLtIrjcmxXNzRKVLNGP+xJnLEIp9EboTe6PH0EO9bX4UmU9gRio/kVUHSbsq5UEfIrf5vueZVqRjwwitUI81V98=
2020-12-10 16:49:26,316 [tc.cpp:139] INFO  - RPC server started at 8123
2020-12-10 16:49:58,040 [status_rpc_server.cpp:129] INFO  - processing request tx 0xa4e02fee3891d398ec21db6c768a4ff5f5b86f2ee675c038eee2a654935ed3c9
request
0x0000:   00 00 00 00 00 00 00 00   00 00 00 00 00 00 00 00    ................
0x0010:   00 00 00 00 00 00 00 00   00 00 00 00 00 00 00 01    ................
0x0020:   00 00 00 00 00 00 00 00   00 00 00 00 00 00 00 00    ................
0x0030:   00 00 00 00 00 00 00 00   00 00 00 00 00 00 00 00    ................
0x0040:   00 00 00 00 00 00 00 00   00 00 00 00 B1 18 87 63    ...............c
0x0050:   E6 AF 30 C3 DF 2F 57 25   8A 48 9B 2A 75 0E E2 91    ..0../W%.H.*u...
0x0060:   00 00 00 00 00 00 00 00   00 00 00 00 00 00 00 00    ................
0x0070:   00 00 00 00 00 00 00 00   00 00 00 05 D2 1D BA 00    ................
0x0080:   00 00 00 00 00 00 00 00   00 00 00 00 B1 18 87 63    ...............c
0x0090:   E6 AF 30 C3 DF 2F 57 25   8A 48 9B 2A 75 0E E2 91    ..0../W%.H.*u...
0x00A0:   8D EE D2 E0 7E C6 D1 6D   55 FE BC 83 0B DB EB A5    ....~..mU.......
0x00B0:   1B A9 A2 66 62 CD 08 A2   2A FD A1 B9 C8 BF A6 61    ...fb...*......a
0x00C0:   00 00 00 00 00 00 00 00   00 00 00 00 00 00 00 00    ................
0x00D0:   00 00 00 00 00 00 00 00   00 00 00 00 00 00 00 00    ................
0x00E0:   00 00 00 00 00 00 00 00   00 00 00 00 00 00 00 00    ................
0x00F0:   00 00 00 00 00 00 00 00   00 00 00 00 00 00 01 00    ................
0x0100:   00 00 00 00 00 00 00 00   00 00 00 00 00 00 00 00    ................
0x0110:   00 00 00 00 00 00 00 00   00 00 00 00 00 00 00 05    ................
0x0120:   7B 22 74 65 73 74 20 73   71 6C 22 3A 20 22 53 45    {"test sql": "SE
0x0130:   4C 45 43 54 20 41 56 47   28 50 72 69 63 65 29 20    LECT AVG(Price) 
0x0140:   46 52 4F 4D 20 50 72 6F   64 75 63 74 73 3B 22 2C    FROM Products;",
0x0150:   20 22 74 65 73 74 20 73   71 6C 22 3A 20 22 53 45     "test sql": "SE
0x0160:   4C 45 43 54 20 41 56 47   28 50 72 69 63 65 29 20    LECT AVG(Price) 
0x0170:   46 52 4F 4D 20 50 72 6F   64 75 63 74 73 3B 22 2C    FROM Products;",
0x0180:   20 22 74 65 73 74 20 73   71 6C 22 3A 20 22 53 45     "test sql": "SE
0x0190:   4C 45 43 54 20 41 56 47   28 50 72 69 63 65 29 20    LECT AVG(Price) 
0x01A0:   46 52 4F 4D 20 50 72 6F   64 75 63 74 73 3B 22 2C    FROM Products;",
0x01B0:   20 7D 30 30 30 30 30 30   30 30 30 30 30 30 30 30     }00000000000000
2020-12-10 16:49:58,040 [status_rpc_server.cpp:134] INFO  - parsed request: request id=1 type=0 with date 160B
2020-12-10 16:49:58,040 [status_rpc_server.cpp:138] INFO  - nonce obtained 3
DCMMC: In handle req
[DEBG] (event_handler.cpp:118) serving tc address: 0x8cfa5DCAD1ee0A21161483B6bA3b48141C5e1B69
[NOTI] (event_handler.cpp:330) DCMMC: SQL start!

[NOTI] (sql_scrapers.cpp:33) Raw SQL code='{"test sql": "SELECT AVG(Price) FROM Products;", "test sql": "SELECT AVG(Price) FROM Products;", "test sql": "SELECT AVG(Price) FROM Products;", }00000000000000'
[ LOG] (tls_client_tiny.cpp:286) connecting over TCP: mct.etherscan.com:443...
[ LOG] (tls_client_tiny.cpp:301) Setting up the SSL/TLS structure...
[ LOG] (tls_client_tiny.cpp:349) Performing the SSL/TLS handshake
[ LOG] (tls_client_tiny.cpp:378) Hand shake succeeds: [TLSv1.2, TLS-ECDHE-ECDSA-WITH-AES-128-GCM-SHA256]
[ LOG] (tls_client_tiny.cpp:381) Record expansion is [29]
[ LOG] (tls_client_tiny.cpp:387) Maximum fragment length is [16384]
[DEBG] (tls_client_tiny.cpp:265) Request: GET /www/d/asyncspces.php?zones=6&prefix=revive-0-&loc=https%3A%2F%2Fetherscan.io%2F&referer=https%3A%2F%2Fwww.google.com%2F HTTP/1.1\r\nAccept: text/html\r\nHost: mct.etherscan.com\r\n\r\n
[ LOG] (tls_client_tiny.cpp:410) mbedtls_ssl_read returns 1369 (Content-Length=-1)
[ LOG] (tls_client_tiny.cpp:140) (4, 29) dateThu, 10 Dec 2020 16:50:04 GMT&prefix=revive-0-&loc=https%3A%(µö‡)A: Thu, 10 Dec 2020 16:50:04 GMT&prefix=revive-0-&loc=https%3A%(µö‡)A
[ LOG] (tls_client_tiny.cpp:140) (12, 16) content-typeapplication/json4 GMT&prefix=revive-0-&loc=https%3A%(µö‡)A: application/json4 GMT&prefix=revive-0-&loc=https%3A%(µö‡)A
[ LOG] (tls_client_tiny.cpp:140) (14, 3) content-length721cation/json4 GMT&prefix=revive-0-&loc=https%3A%(µö‡)A: 721cation/json4 GMT&prefix=revive-0-&loc=https%3A%(µö‡)A
[ LOG] (tls_client_tiny.cpp:140) (10, 10) connectionkeep-aliveion/json4 GMT&prefix=revive-0-&loc=https%3A%(µö‡)A: keep-aliveion/json4 GMT&prefix=revive-0-&loc=https%3A%(µö‡)A
[ LOG] (tls_client_tiny.cpp:140) (10, 144) set-cookie__cfduid=d1f3ca6f1e55549e0b50da22a1ddb81111607619003; expires=Sat, 09-Jan-21 16:50:03 GMT; path=/; domain=.etherscan.com; HttpOnly; SameSite=Lax: __cfduid=d1f3ca6f1e55549e0b50da22a1ddb81111607619003; expires=Sat, 09-Jan-21 16:50:03 GMT; path=/; domain=.etherscan.com; HttpOnly; SameSite=Lax
[ LOG] (tls_client_tiny.cpp:140) (6, 8) pragmano-cacheduid=d1f3ca6f1e55549e0b50da22a1ddb81111607619003; expires=Sat, 09-Jan-21 16:50:03 GMT; path=/; domain=.etherscan.com; HttpOnly; SameSite=Lax: no-cacheduid=d1f3ca6f1e55549e0b50da22a1ddb81111607619003; expires=Sat, 09-Jan-21 16:50:03 GMT; path=/; domain=.etherscan.com; HttpOnly; SameSite=Lax
[ LOG] (tls_client_tiny.cpp:140) (13, 35) cache-controlno-cache, no-store, must-revalidate81111607619003; expires=Sat, 09-Jan-21 16:50:03 GMT; path=/; domain=.etherscan.com; HttpOnly; SameSite=Lax: no-cache, no-store, must-revalidate81111607619003; expires=Sat, 09-Jan-21 16:50:03 GMT; path=/; domain=.etherscan.com; HttpOnly; SameSite=Lax
[ LOG] (tls_client_tiny.cpp:140) (7, 1) expires0ntrolno-cache, no-store, must-revalidate81111607619003; expires=Sat, 09-Jan-21 16:50:03 GMT; path=/; domain=.etherscan.com; HttpOnly; SameSite=Lax: 0ntrolno-cache, no-store, must-revalidate81111607619003; expires=Sat, 09-Jan-21 16:50:03 GMT; path=/; domain=.etherscan.com; HttpOnly; SameSite=Lax
[ LOG] (tls_client_tiny.cpp:140) (27, 1) access-control-allow-origin*ore, must-revalidate81111607619003; expires=Sat, 09-Jan-21 16:50:03 GMT; path=/; domain=.etherscan.com; HttpOnly; SameSite=Lax: *ore, must-revalidate81111607619003; expires=Sat, 09-Jan-21 16:50:03 GMT; path=/; domain=.etherscan.com; HttpOnly; SameSite=Lax
[ LOG] (tls_client_tiny.cpp:140) (3, 28) p3pCP="CUR ADM OUR NOR STA NID", must-revalidate81111607619003; expires=Sat, 09-Jan-21 16:50:03 GMT; path=/; domain=.etherscan.com; HttpOnly; SameSite=Lax: CP="CUR ADM OUR NOR STA NID", must-revalidate81111607619003; expires=Sat, 09-Jan-21 16:50:03 GMT; path=/; domain=.etherscan.com; HttpOnly; SameSite=Lax
[ LOG] (tls_client_tiny.cpp:140) (10, 161) set-cookieOAGEO=2%7CCN%7CAS%7C%7CShenzhen%7C%7C22.5333%7C114.1333%7C5%7CAsia%2FShanghai%7C%7CGD%7C%7C%7C%7C%7C%7C%7C%7C%7C%7C%7C%7C%7C%7C%7C; path=/; samesite=none; secureerscan.com\r\n\r\n: OAGEO=2%7CCN%7CAS%7C%7CShenzhen%7C%7C22.5333%7C114.1333%7C5%7CAsia%2FShanghai%7C%7CGD%7C%7C%7C%7C%7C%7C%7C%7C%7C%7C%7C%7C%7C%7C%7C; path=/; samesite=none; secureerscan.com\r\n\r\n
[ LOG] (tls_client_tiny.cpp:140) (10, 125) set-cookieOAID=3bfc288ac8e36b732c38a74477171c0b; expires=Fri, 10-Dec-2021 16:50:04 GMT; Max-Age=31536000; path=/; samesite=none; secure7C%7C; path=/; samesite=none; secureerscan.com\r\n\r\n: OAID=3bfc288ac8e36b732c38a74477171c0b; expires=Fri, 10-Dec-2021 16:50:04 GMT; Max-Age=31536000; path=/; samesite=none; secure7C%7C; path=/; samesite=none; secureerscan.com\r\n\r\n
[ LOG] (tls_client_tiny.cpp:140) (15, 7) cf-cache-statusDYNAMICac8e36b732c38a74477171c0b; expires=Fri, 10-Dec-2021 16:50:04 GMT; Max-Age=31536000; path=/; samesite=none; secure7C%7C; path=/; samesite=none; secureerscan.com\r\n\r\n: DYNAMICac8e36b732c38a74477171c0b; expires=Fri, 10-Dec-2021 16:50:04 GMT; Max-Age=31536000; path=/; samesite=none; secure7C%7C; path=/; samesite=none; secureerscan.com\r\n\r\n
[ LOG] (tls_client_tiny.cpp:140) (13, 32) cf-request-id06ef285e190000c3c4aeb860000000010b; expires=Fri, 10-Dec-2021 16:50:04 GMT; Max-Age=31536000; path=/; samesite=none; secure7C%7C; path=/; samesite=none; secureerscan.com\r\n\r\n: 06ef285e190000c3c4aeb860000000010b; expires=Fri, 10-Dec-2021 16:50:04 GMT; Max-Age=31536000; path=/; samesite=none; secure7C%7C; path=/; samesite=none; secureerscan.com\r\n\r\n
[ LOG] (tls_client_tiny.cpp:140) (9, 87) expect-ctmax-age=604800, report-uri="https://report-uri.cloudflare.com/cdn-cgi/beacon/expect-ct"31536000; path=/; samesite=none; secure7C%7C; path=/; samesite=none; secureerscan.com\r\n\r\n: max-age=604800, report-uri="https://report-uri.cloudflare.com/cdn-cgi/beacon/expect-ct"31536000; path=/; samesite=none; secure7C%7C; path=/; samesite=none; secureerscan.com\r\n\r\n
[ LOG] (tls_client_tiny.cpp:140) (9, 223) report-to{"endpoints":[{"url":"https:\/\/a.nel.cloudflare.com\/report?s=yrdXTgIcoDP%2FONSXwPh3ZcOJmQZne9z%2FFDmsjbdgb14rlg1md0jFJQWomYpubwgP8rx2B%2BykQDATmsCLpVCXfQxEiTxytpiBQVrTDbFJoUO4NA%3D%3D"}],"group":"cf-nel","max_age":604800}erer=https%3A%2F%2Fwww.google.com%2F: {"endpoints":[{"url":"https:\/\/a.nel.cloudflare.com\/report?s=yrdXTgIcoDP%2FONSXwPh3ZcOJmQZne9z%2FFDmsjbdgb14rlg1md0jFJQWomYpubwgP8rx2B%2BykQDATmsCLpVCXfQxEiTxytpiBQVrTDbFJoUO4NA%3D%3D"}],"group":"cf-nel","max_age":604800}erer=https%3A%2F%2Fwww.google.com%2F
[ LOG] (tls_client_tiny.cpp:140) (3, 39) nel{"report_to":"cf-nel","max_age":604800}.nel.cloudflare.com\/report?s=yrdXTgIcoDP%2FONSXwPh3ZcOJmQZne9z%2FFDmsjbdgb14rlg1md0jFJQWomYpubwgP8rx2B%2BykQDATmsCLpVCXfQxEiTxytpiBQVrTDbFJoUO4NA%3D%3D"}],"group":"cf-nel","max_age":604800}erer=https%3A%2F%2Fwww.google.com%2F: {"report_to":"cf-nel","max_age":604800}.nel.cloudflare.com\/report?s=yrdXTgIcoDP%2FONSXwPh3ZcOJmQZne9z%2FFDmsjbdgb14rlg1md0jFJQWomYpubwgP8rx2B%2BykQDATmsCLpVCXfQxEiTxytpiBQVrTDbFJoUO4NA%3D%3D"}],"group":"cf-nel","max_age":604800}erer=https%3A%2F%2Fwww.google.com%2F
[ LOG] (tls_client_tiny.cpp:140) (6, 10) servercloudflare"cf-nel","max_age":604800}.nel.cloudflare.com\/report?s=yrdXTgIcoDP%2FONSXwPh3ZcOJmQZne9z%2FFDmsjbdgb14rlg1md0jFJQWomYpubwgP8rx2B%2BykQDATmsCLpVCXfQxEiTxytpiBQVrTDbFJoUO4NA%3D%3D"}],"group":"cf-nel","max_age":604800}erer=https%3A%2F%2Fwww.google.com%2F: cloudflare"cf-nel","max_age":604800}.nel.cloudflare.com\/report?s=yrdXTgIcoDP%2FONSXwPh3ZcOJmQZne9z%2FFDmsjbdgb14rlg1md0jFJQWomYpubwgP8rx2B%2BykQDATmsCLpVCXfQxEiTxytpiBQVrTDbFJoUO4NA%3D%3D"}],"group":"cf-nel","max_age":604800}erer=https%3A%2F%2Fwww.google.com%2F
[ LOG] (tls_client_tiny.cpp:140) (6, 20) cf-ray5ff876768e0dc3c4-LAXmax_age":604800}.nel.cloudflare.com\/report?s=yrdXTgIcoDP%2FONSXwPh3ZcOJmQZne9z%2FFDmsjbdgb14rlg1md0jFJQWomYpubwgP8rx2B%2BykQDATmsCLpVCXfQxEiTxytpiBQVrTDbFJoUO4NA%3D%3D"}],"group":"cf-nel","max_age":604800}erer=https%3A%2F%2Fwww.google.com%2F: 5ff876768e0dc3c4-LAXmax_age":604800}.nel.cloudflare.com\/report?s=yrdXTgIcoDP%2FONSXwPh3ZcOJmQZne9z%2FFDmsjbdgb14rlg1md0jFJQWomYpubwgP8rx2B%2BykQDATmsCLpVCXfQxEiTxytpiBQVrTDbFJoUO4NA%3D%3D"}],"group":"cf-nel","max_age":604800}erer=https%3A%2F%2Fwww.google.com%2F
[ LOG] (tls_client_tiny.cpp:444) http_need_more=1, n_data=0
[ LOG] (tls_client_tiny.cpp:410) mbedtls_ssl_read returns 613 (Content-Length=613)
[ LOG] (tls_client_tiny.cpp:444) http_need_more=0, n_data=0
[DEBG] (tls_client_tiny.cpp:453) HTTP response len=721
[ LOG] (tls_client_tiny.cpp:461) Response body (len=721):
{"revive-0-0":{"html":"<b>Featured:<\/b> Looking for farms to harvest on? Check out<b> <a href=\"https:\/\/mct.etherscan.com\/www\/d\/ckes.php?oaparams=2__ebannerid=698__zoneid=6__cb=70e2f7a29d__oadest=https%3A%2F%2Fetherscan.io%2Fyieldfarms\" target=\"_blank\">Yield Farms!<\/a><\/b> &#128668&#127806;<div id='beacon_70e2f7a29d' style='position: absolute; left: 0px; top: 0px; visibility: hidden;'><img src='https:\/\/mct.etherscan.com\/www\/d\/lg.php?ebannerid=698&amp;campaignid=72&amp;zoneid=6&amp;loc=https%3A%2F%2Fetherscan.io%2F&amp;referer=https%3A%2F%2Fwww.google.com%2F&amp;cb=70e2f7a29d' width='0' height='0' alt='' style='width: 0px; height: 0px;' \/><\/div>","width":"0","height":"0","iframeFriendly":false}}
[NOTI] (sql_scrapers.cpp:126) Result={"revive-0-0":{"html":"<b>Featured:<\/b> Looking for farms to harvest on? Check out<b> <a href=\"https:\/\/mct.etherscan.com\/www\/d\/ckes.php?oaparams=2__ebannerid=698__zoneid=6__cb=70e2f7a29d__oadest=https%3A%2F%2Fetherscan.io%2Fyieldfarms\" target=\"_blank\">Yield Farms!<\/a><\/b> &#128668&#127806;<div id='beacon_70e2f7a29d' style='position: absolute; left: 0px; top: 0px; visibility: hidden;'><img src='https:\/\/mct.etherscan.com\/www\/d\/lg.php?ebannerid=698&amp;campaignid=72&amp;zoneid=6&amp;loc=https%3A%2F%2Fetherscan.io%2F&amp;referer=https%3A%2F%2Fwww.google.com%2F&amp;cb=70e2f7a29d' width='0' height='0' alt='' style='width: 0px; height: 0px;' \/><\/div>","width":"0","height":"0","iframeFriendly":false}}
[NOTI] (sql_scrapers.cpp:39) sql result=721
[NOTI] (event_handler.cpp:344) SQLScraper returned: {"revive-0-0":{"html":"<b>Featured:<\/b> Looking for farms to harvest on? Check out<b> <a href=\"https:\/\/mct.etherscan.com\/www\/d\/ckes.php?oaparams=2__ebannerid=698__zoneid=6__cb=70e2f7a29d__oadest=https%3A%2F%2Fetherscan.io%2Fyieldfarms\" target=\"_blank\">Yield Farms!<\/a><\/b> &#128668&#127806;<div id='beacon_70e2f7a29d' style='position: absolute; left: 0px; top: 0px; visibility: hidden;'><img src='https:\/\/mct.etherscan.com\/www\/d\/lg.php?ebannerid=698&amp;campaignid=72&amp;zoneid=6&amp;loc=https%3A%2F%2Fetherscan.io%2F&amp;referer=https%3A%2F%2Fwww.google.com%2F&amp;cb=70e2f7a29d' width='0' height='0' alt='' style='width: 0px; height: 0px;' \/><\/div>","width":"0","height":"0","iframeFriendly":false}}

[NOTI] (eth_transaction.cpp:157) forming transaction for nonce=3, id=1, type=0, date_len=160, err=0
[NOTI] (eth_transaction.cpp:205) (DCMMC) #resp_data=721
[NOTI] (eth_transaction.cpp:206) (DCMMC) size_d=23
[NOTI] (eth_transaction.cpp:211) (DCMMC) padding size=15
[NOTI] (eth_transaction.cpp:230) (DCMMC) _abi_array done.
[NOTI] (eth_abi.cpp:117) (DCMMC) start encoding.
[NOTI] (eth_abi.cpp:119) (DCMMC) head_len of item 0
[NOTI] (eth_abi.cpp:119) (DCMMC) head_len of item 1
[NOTI] (eth_abi.cpp:119) (DCMMC) head_len of item 2
[NOTI] (eth_abi.cpp:119) (DCMMC) head_len of item 3
[NOTI] (eth_abi.cpp:119) (DCMMC) head_len of item 4
[NOTI] (eth_abi.cpp:119) (DCMMC) head_len of item 5
[NOTI] (eth_abi.cpp:119) (DCMMC) head_len of item 6
[NOTI] (eth_abi.cpp:119) (DCMMC) head_len of item 7
[NOTI] (eth_abi.cpp:119) (DCMMC) head_len of item 8
[NOTI] (eth_abi.cpp:119) (DCMMC) head_len of item 9
[NOTI] (eth_abi.cpp:119) (DCMMC) head_len of item 10
[NOTI] (eth_abi.cpp:119) (DCMMC) head_len of item 11
[NOTI] (eth_abi.cpp:119) (DCMMC) head_len of item 12
[NOTI] (eth_abi.cpp:119) (DCMMC) head_len of item 13
[NOTI] (eth_abi.cpp:119) (DCMMC) head_len of item 14
[NOTI] (eth_abi.cpp:119) (DCMMC) head_len of item 15
[NOTI] (eth_abi.cpp:119) (DCMMC) head_len of item 16
[NOTI] (eth_abi.cpp:119) (DCMMC) head_len of item 17
[NOTI] (eth_abi.cpp:119) (DCMMC) head_len of item 18
[NOTI] (eth_abi.cpp:119) (DCMMC) head_len of item 19
[NOTI] (eth_abi.cpp:119) (DCMMC) head_len of item 20
[NOTI] (eth_abi.cpp:119) (DCMMC) head_len of item 21
[NOTI] (eth_abi.cpp:119) (DCMMC) head_len of item 22
[NOTI] (eth_abi.cpp:119) (DCMMC) head_len of item 23
[NOTI] (eth_abi.cpp:119) (DCMMC) head_len of item 24
[NOTI] (eth_abi.cpp:119) (DCMMC) head_len of item 25
[NOTI] (eth_abi.cpp:119) (DCMMC) head_len of item 26
[NOTI] (eth_abi.cpp:119) (DCMMC) head_len of item 27
[NOTI] (eth_abi.cpp:124) (DCMMC) start item 0
[NOTI] (eth_abi.cpp:132) (DCMMC) head encoding
[NOTI] (eth_abi.cpp:124) (DCMMC) start item 1
[NOTI] (eth_abi.cpp:132) (DCMMC) head encoding
[NOTI] (eth_abi.cpp:124) (DCMMC) start item 2
[NOTI] (eth_abi.cpp:132) (DCMMC) head encoding
[NOTI] (eth_abi.cpp:124) (DCMMC) start item 3
[NOTI] (eth_abi.cpp:132) (DCMMC) head encoding
[NOTI] (eth_abi.cpp:124) (DCMMC) start item 4
[NOTI] (eth_abi.cpp:132) (DCMMC) head encoding
[NOTI] (eth_abi.cpp:124) (DCMMC) start item 5
[NOTI] (eth_abi.cpp:132) (DCMMC) head encoding
[NOTI] (eth_abi.cpp:124) (DCMMC) start item 6
[NOTI] (eth_abi.cpp:132) (DCMMC) head encoding
[NOTI] (eth_abi.cpp:124) (DCMMC) start item 7
[NOTI] (eth_abi.cpp:132) (DCMMC) head encoding
[NOTI] (eth_abi.cpp:124) (DCMMC) start item 8
[NOTI] (eth_abi.cpp:132) (DCMMC) head encoding
[NOTI] (eth_abi.cpp:124) (DCMMC) start item 9
[NOTI] (eth_abi.cpp:132) (DCMMC) head encoding
[NOTI] (eth_abi.cpp:124) (DCMMC) start item 10
[NOTI] (eth_abi.cpp:132) (DCMMC) head encoding
[NOTI] (eth_abi.cpp:124) (DCMMC) start item 11
[NOTI] (eth_abi.cpp:132) (DCMMC) head encoding
[NOTI] (eth_abi.cpp:124) (DCMMC) start item 12
[NOTI] (eth_abi.cpp:132) (DCMMC) head encoding
[NOTI] (eth_abi.cpp:124) (DCMMC) start item 13
[NOTI] (eth_abi.cpp:132) (DCMMC) head encoding
[NOTI] (eth_abi.cpp:124) (DCMMC) start item 14
[NOTI] (eth_abi.cpp:132) (DCMMC) head encoding
[NOTI] (eth_abi.cpp:124) (DCMMC) start item 15
[NOTI] (eth_abi.cpp:132) (DCMMC) head encoding
[NOTI] (eth_abi.cpp:124) (DCMMC) start item 16
[NOTI] (eth_abi.cpp:132) (DCMMC) head encoding
[NOTI] (eth_abi.cpp:124) (DCMMC) start item 17
[NOTI] (eth_abi.cpp:132) (DCMMC) head encoding
[NOTI] (eth_abi.cpp:124) (DCMMC) start item 18
[NOTI] (eth_abi.cpp:132) (DCMMC) head encoding
[NOTI] (eth_abi.cpp:124) (DCMMC) start item 19
[NOTI] (eth_abi.cpp:132) (DCMMC) head encoding
[NOTI] (eth_abi.cpp:124) (DCMMC) start item 20
[NOTI] (eth_abi.cpp:132) (DCMMC) head encoding
[NOTI] (eth_abi.cpp:124) (DCMMC) start item 21
[NOTI] (eth_abi.cpp:132) (DCMMC) head encoding
[NOTI] (eth_abi.cpp:124) (DCMMC) start item 22
[NOTI] (eth_abi.cpp:132) (DCMMC) head encoding
[NOTI] (eth_abi.cpp:124) (DCMMC) start item 23
[NOTI] (eth_abi.cpp:132) (DCMMC) head encoding
[NOTI] (eth_abi.cpp:124) (DCMMC) start item 24
[NOTI] (eth_abi.cpp:132) (DCMMC) head encoding
[NOTI] (eth_abi.cpp:124) (DCMMC) start item 25
[NOTI] (eth_abi.cpp:132) (DCMMC) head encoding
[NOTI] (eth_abi.cpp:124) (DCMMC) start item 26
[NOTI] (eth_abi.cpp:132) (DCMMC) head encoding
[NOTI] (eth_abi.cpp:124) (DCMMC) start item 27
[NOTI] (eth_abi.cpp:132) (DCMMC) head encoding
[NOTI] (eth_transaction.cpp:238) (DCMMC) encoded_delivery_call done.
[DEBG] (eth_transaction.cpp:240) done ABI encoding
func selector
0x0000:   E0 2E 17 7B 3F CC 91 D5   B6 CB C2 58 A5 30 0F 20    ...{?......X.0. 
0x0010:   86 5B 96 AC 00 7D 06 9C   C7 CB 3F C3 AC 72 52 D7    .[...}....?..rR.
encoded data
0x0000:   E0 2E 17 7B 00 00 00 00   00 00 00 00 00 00 00 00    ...{............
0x0010:   00 00 00 00 00 00 00 00   00 00 00 00 00 00 00 00    ................
0x0020:   00 00 00 01 8D EE D2 E0   7E C6 D1 6D 55 FE BC 83    ........~..mU...
0x0030:   0B DB EB A5 1B A9 A2 66   62 CD 08 A2 2A FD A1 B9    .......fb...*...
0x0040:   C8 BF A6 61 00 00 00 00   00 00 00 00 00 00 00 00    ...a............
0x0050:   00 00 00 00 00 00 00 00   00 00 00 00 00 00 00 00    ................
0x0060:   00 00 00 00 00 00 00 00   00 00 00 00 00 00 00 00    ................
0x0070:   00 00 00 00 00 00 00 00   00 00 00 00 00 00 00 00    ................
0x0080:   00 00 00 80 00 00 00 00   00 00 00 00 00 00 00 00    ................
0x0090:   00 00 00 00 00 00 00 00   00 00 00 00 00 00 00 00    ................
0x00A0:   00 00 00 17 00 00 00 00   00 00 00 00 00 00 00 00    ................
0x00B0:   00 00 00 00 00 00 00 00   00 00 00 00 00 00 00 00    ................
0x00C0:   00 00 00 7B 00 00 00 00   00 00 00 00 00 00 00 00    ...{............
0x00D0:   00 00 00 00 00 00 00 00   00 00 00 00 00 00 00 00    ................
0x00E0:   00 00 00 65 00 00 00 00   00 00 00 00 00 00 00 00    ...e............
0x00F0:   00 00 00 00 00 00 00 00   00 00 00 00 00 00 00 00    ................
0x0100:   00 00 00 72 00 00 00 00   00 00 00 00 00 00 00 00    ...r............
0x0110:   00 00 00 00 00 00 00 00   00 00 00 00 00 00 00 00    ................
0x0120:   00 00 00 22 00 00 00 00   00 00 00 00 00 00 00 00    ..."............
0x0130:   00 00 00 00 00 00 00 00   00 00 00 00 00 00 00 00    ................
0x0140:   00 00 00 77 00 00 00 00   00 00 00 00 00 00 00 00    ...w............
0x0150:   00 00 00 00 00 00 00 00   00 00 00 00 00 00 00 00    ................
0x0160:   00 00 00 65 00 00 00 00   00 00 00 00 00 00 00 00    ...e............
0x0170:   00 00 00 00 00 00 00 00   00 00 00 00 00 00 00 00    ................
0x0180:   00 00 00 64 00 00 00 00   00 00 00 00 00 00 00 00    ...d............
0x0190:   00 00 00 00 00 00 00 00   00 00 00 00 00 00 00 00    ................
0x01A0:   00 00 00 6E 00 00 00 00   00 00 00 00 00 00 00 00    ...n............
0x01B0:   00 00 00 00 00 00 00 00   00 00 00 00 00 00 00 00    ................
0x01C0:   00 00 00 61 00 00 00 00   00 00 00 00 00 00 00 00    ...a............
0x01D0:   00 00 00 00 00 00 00 00   00 00 00 00 00 00 00 00    ................
0x01E0:   00 00 00 32 00 00 00 00   00 00 00 00 00 00 00 00    ...2............
0x01F0:   00 00 00 00 00 00 00 00   00 00 00 00 00 00 00 00    ................
0x0200:   00 00 00 65 00 00 00 00   00 00 00 00 00 00 00 00    ...e............
0x0210:   00 00 00 00 00 00 00 00   00 00 00 00 00 00 00 00    ................
0x0220:   00 00 00 75 00 00 00 00   00 00 00 00 00 00 00 00    ...u............
0x0230:   00 00 00 00 00 00 00 00   00 00 00 00 00 00 00 00    ................
0x0240:   00 00 00 6C 00 00 00 00   00 00 00 00 00 00 00 00    ...l............
0x0250:   00 00 00 00 00 00 00 00   00 00 00 00 00 00 00 00    ................
0x0260:   00 00 00 2F 00 00 00 00   00 00 00 00 00 00 00 00    .../............
0x0270:   00 00 00 00 00 00 00 00   00 00 00 00 00 00 00 00    ................
0x0280:   00 00 00 2E 00 00 00 00   00 00 00 00 00 00 00 00    ................
0x0290:   00 00 00 00 00 00 00 00   00 00 00 00 00 00 00 00    ................
0x02A0:   00 00 00 64 00 00 00 00   00 00 00 00 00 00 00 00    ...d............
0x02B0:   00 00 00 00 00 00 00 00   00 00 00 00 00 00 00 00    ................
0x02C0:   00 00 00 33 00 00 00 00   00 00 00 00 00 00 00 00    ...3............
0x02D0:   00 00 00 00 00 00 00 00   00 00 00 00 00 00 00 00    ................
0x02E0:   00 00 00 72 00 00 00 00   00 00 00 00 00 00 00 00    ...r............
0x02F0:   00 00 00 00 00 00 00 00   00 00 00 00 00 00 00 00    ................
0x0300:   00 00 00 25 00 00 00 00   00 00 00 00 00 00 00 00    ...%............
0x0310:   00 00 00 00 00 00 00 00   00 00 00 00 00 00 00 00    ................
0x0320:   00 00 00 20 00 00 00 00   00 00 00 00 00 00 00 00    ... ............
0x0330:   00 00 00 00 00 00 00 00   00 00 00 00 00 00 00 00    ................
0x0340:   00 00 00 20 00 00 00 00   00 00 00 00 00 00 00 00    ... ............
0x0350:   00 00 00 00 00 00 00 00   00 00 00 00 00 00 00 00    ................
0x0360:   00 00 00 22 00 00 00 00   00 00 00 00 00 00 00 00    ..."............
0x0370:   00 00 00 00 00 00 00 00   00 00 00 00 00 00 00 00    ................
0x0380:   00 00 00 46                                          ...F            
[NOTI] (encoding.cpp:111) (DCMMC) bytes20
nonce
0x0000:   03                                                   .               
gasPrice
0x0000:   0B A4 3B 74 00                                       ..;t.           
gas
0x0000:   2D C6 C0                                             -..             
receiveAddr
0x0000:   8C FA 5D CA D1 EE 0A 21   16 14 83 B6 BA 3B 48 14    ..]....!.....;H.
0x0010:   1C 5E 1B 69                                          .^.i            
value
data
0x0000:   E0 2E 17 7B 00 00 00 00   00 00 00 00 00 00 00 00    ...{............
0x0010:   00 00 00 00 00 00 00 00   00 00 00 00 00 00 00 00    ................
0x0020:   00 00 00 01 8D EE D2 E0   7E C6 D1 6D 55 FE BC 83    ........~..mU...
0x0030:   0B DB EB A5 1B A9 A2 66   62 CD 08 A2 2A FD A1 B9    .......fb...*...
0x0040:   C8 BF A6 61 00 00 00 00   00 00 00 00 00 00 00 00    ...a............
0x0050:   00 00 00 00 00 00 00 00   00 00 00 00 00 00 00 00    ................
0x0060:   00 00 00 00 00 00 00 00   00 00 00 00 00 00 00 00    ................
0x0070:   00 00 00 00 00 00 00 00   00 00 00 00 00 00 00 00    ................
0x0080:   00 00 00 80 00 00 00 00   00 00 00 00 00 00 00 00    ................
0x0090:   00 00 00 00 00 00 00 00   00 00 00 00 00 00 00 00    ................
0x00A0:   00 00 00 17 00 00 00 00   00 00 00 00 00 00 00 00    ................
0x00B0:   00 00 00 00 00 00 00 00   00 00 00 00 00 00 00 00    ................
0x00C0:   00 00 00 7B 00 00 00 00   00 00 00 00 00 00 00 00    ...{............
0x00D0:   00 00 00 00 00 00 00 00   00 00 00 00 00 00 00 00    ................
0x00E0:   00 00 00 65 00 00 00 00   00 00 00 00 00 00 00 00    ...e............
0x00F0:   00 00 00 00 00 00 00 00   00 00 00 00 00 00 00 00    ................
0x0100:   00 00 00 72 00 00 00 00   00 00 00 00 00 00 00 00    ...r............
0x0110:   00 00 00 00 00 00 00 00   00 00 00 00 00 00 00 00    ................
0x0120:   00 00 00 22 00 00 00 00   00 00 00 00 00 00 00 00    ..."............
0x0130:   00 00 00 00 00 00 00 00   00 00 00 00 00 00 00 00    ................
0x0140:   00 00 00 77 00 00 00 00   00 00 00 00 00 00 00 00    ...w............
0x0150:   00 00 00 00 00 00 00 00   00 00 00 00 00 00 00 00    ................
0x0160:   00 00 00 65 00 00 00 00   00 00 00 00 00 00 00 00    ...e............
0x0170:   00 00 00 00 00 00 00 00   00 00 00 00 00 00 00 00    ................
0x0180:   00 00 00 64 00 00 00 00   00 00 00 00 00 00 00 00    ...d............
0x0190:   00 00 00 00 00 00 00 00   00 00 00 00 00 00 00 00    ................
0x01A0:   00 00 00 6E 00 00 00 00   00 00 00 00 00 00 00 00    ...n............
0x01B0:   00 00 00 00 00 00 00 00   00 00 00 00 00 00 00 00    ................
0x01C0:   00 00 00 61 00 00 00 00   00 00 00 00 00 00 00 00    ...a............
0x01D0:   00 00 00 00 00 00 00 00   00 00 00 00 00 00 00 00    ................
0x01E0:   00 00 00 32 00 00 00 00   00 00 00 00 00 00 00 00    ...2............
0x01F0:   00 00 00 00 00 00 00 00   00 00 00 00 00 00 00 00    ................
0x0200:   00 00 00 65 00 00 00 00   00 00 00 00 00 00 00 00    ...e............
0x0210:   00 00 00 00 00 00 00 00   00 00 00 00 00 00 00 00    ................
0x0220:   00 00 00 75 00 00 00 00   00 00 00 00 00 00 00 00    ...u............
0x0230:   00 00 00 00 00 00 00 00   00 00 00 00 00 00 00 00    ................
0x0240:   00 00 00 6C 00 00 00 00   00 00 00 00 00 00 00 00    ...l............
0x0250:   00 00 00 00 00 00 00 00   00 00 00 00 00 00 00 00    ................
0x0260:   00 00 00 2F 00 00 00 00   00 00 00 00 00 00 00 00    .../............
0x0270:   00 00 00 00 00 00 00 00   00 00 00 00 00 00 00 00    ................
0x0280:   00 00 00 2E 00 00 00 00   00 00 00 00 00 00 00 00    ................
0x0290:   00 00 00 00 00 00 00 00   00 00 00 00 00 00 00 00    ................
0x02A0:   00 00 00 64 00 00 00 00   00 00 00 00 00 00 00 00    ...d............
0x02B0:   00 00 00 00 00 00 00 00   00 00 00 00 00 00 00 00    ................
0x02C0:   00 00 00 33 00 00 00 00   00 00 00 00 00 00 00 00    ...3............
0x02D0:   00 00 00 00 00 00 00 00   00 00 00 00 00 00 00 00    ................
0x02E0:   00 00 00 72 00 00 00 00   00 00 00 00 00 00 00 00    ...r............
0x02F0:   00 00 00 00 00 00 00 00   00 00 00 00 00 00 00 00    ................
0x0300:   00 00 00 25 00 00 00 00   00 00 00 00 00 00 00 00    ...%............
0x0310:   00 00 00 00 00 00 00 00   00 00 00 00 00 00 00 00    ................
0x0320:   00 00 00 20 00 00 00 00   00 00 00 00 00 00 00 00    ... ............
0x0330:   00 00 00 00 00 00 00 00   00 00 00 00 00 00 00 00    ................
0x0340:   00 00 00 20 00 00 00 00   00 00 00 00 00 00 00 00    ... ............
0x0350:   00 00 00 00 00 00 00 00   00 00 00 00 00 00 00 00    ................
0x0360:   00 00 00 22 00 00 00 00   00 00 00 00 00 00 00 00    ..."............
0x0370:   00 00 00 00 00 00 00 00   00 00 00 00 00 00 00 00    ................
0x0380:   00 00 00 46                                          ...F            
[DEBG] (eth_transaction.cpp:273) rlpEncode done
tx w/o sig
0x0000:   F9 03 A8 03 85 0B A4 3B   74 00 83 2D C6 C0 94 8C    .......;t..-....
0x0010:   FA 5D CA D1 EE 0A 21 16   14 83 B6 BA 3B 48 14 1C    .]....!.....;H..
0x0020:   5E 1B 69 80 B9 03 84 E0   2E 17 7B 00 00 00 00 00    ^.i.......{.....
0x0030:   00 00 00 00 00 00 00 00   00 00 00 00 00 00 00 00    ................
0x0040:   00 00 00 00 00 00 00 00   00 00 01 8D EE D2 E0 7E    ...............~
0x0050:   C6 D1 6D 55 FE BC 83 0B   DB EB A5 1B A9 A2 66 62    ..mU..........fb
0x0060:   CD 08 A2 2A FD A1 B9 C8   BF A6 61 00 00 00 00 00    ...*......a.....
0x0070:   00 00 00 00 00 00 00 00   00 00 00 00 00 00 00 00    ................
0x0080:   00 00 00 00 00 00 00 00   00 00 00 00 00 00 00 00    ................
0x0090:   00 00 00 00 00 00 00 00   00 00 00 00 00 00 00 00    ................
0x00A0:   00 00 00 00 00 00 00 00   00 00 80 00 00 00 00 00    ................
0x00B0:   00 00 00 00 00 00 00 00   00 00 00 00 00 00 00 00    ................
0x00C0:   00 00 00 00 00 00 00 00   00 00 17 00 00 00 00 00    ................
0x00D0:   00 00 00 00 00 00 00 00   00 00 00 00 00 00 00 00    ................
0x00E0:   00 00 00 00 00 00 00 00   00 00 7B 00 00 00 00 00    ..........{.....
0x00F0:   00 00 00 00 00 00 00 00   00 00 00 00 00 00 00 00    ................
0x0100:   00 00 00 00 00 00 00 00   00 00 65 00 00 00 00 00    ..........e.....
0x0110:   00 00 00 00 00 00 00 00   00 00 00 00 00 00 00 00    ................
0x0120:   00 00 00 00 00 00 00 00   00 00 72 00 00 00 00 00    ..........r.....
0x0130:   00 00 00 00 00 00 00 00   00 00 00 00 00 00 00 00    ................
0x0140:   00 00 00 00 00 00 00 00   00 00 22 00 00 00 00 00    ..........".....
0x0150:   00 00 00 00 00 00 00 00   00 00 00 00 00 00 00 00    ................
0x0160:   00 00 00 00 00 00 00 00   00 00 77 00 00 00 00 00    ..........w.....
0x0170:   00 00 00 00 00 00 00 00   00 00 00 00 00 00 00 00    ................
0x0180:   00 00 00 00 00 00 00 00   00 00 65 00 00 00 00 00    ..........e.....
0x0190:   00 00 00 00 00 00 00 00   00 00 00 00 00 00 00 00    ................
0x01A0:   00 00 00 00 00 00 00 00   00 00 64 00 00 00 00 00    ..........d.....
0x01B0:   00 00 00 00 00 00 00 00   00 00 00 00 00 00 00 00    ................
0x01C0:   00 00 00 00 00 00 00 00   00 00 6E 00 00 00 00 00    ..........n.....
0x01D0:   00 00 00 00 00 00 00 00   00 00 00 00 00 00 00 00    ................
0x01E0:   00 00 00 00 00 00 00 00   00 00 61 00 00 00 00 00    ..........a.....
0x01F0:   00 00 00 00 00 00 00 00   00 00 00 00 00 00 00 00    ................
0x0200:   00 00 00 00 00 00 00 00   00 00 32 00 00 00 00 00    ..........2.....
0x0210:   00 00 00 00 00 00 00 00   00 00 00 00 00 00 00 00    ................
0x0220:   00 00 00 00 00 00 00 00   00 00 65 00 00 00 00 00    ..........e.....
0x0230:   00 00 00 00 00 00 00 00   00 00 00 00 00 00 00 00    ................
0x0240:   00 00 00 00 00 00 00 00   00 00 75 00 00 00 00 00    ..........u.....
0x0250:   00 00 00 00 00 00 00 00   00 00 00 00 00 00 00 00    ................
0x0260:   00 00 00 00 00 00 00 00   00 00 6C 00 00 00 00 00    ..........l.....
0x0270:   00 00 00 00 00 00 00 00   00 00 00 00 00 00 00 00    ................
0x0280:   00 00 00 00 00 00 00 00   00 00 2F 00 00 00 00 00    ........../.....
0x0290:   00 00 00 00 00 00 00 00   00 00 00 00 00 00 00 00    ................
0x02A0:   00 00 00 00 00 00 00 00   00 00 2E 00 00 00 00 00    ................
0x02B0:   00 00 00 00 00 00 00 00   00 00 00 00 00 00 00 00    ................
0x02C0:   00 00 00 00 00 00 00 00   00 00 64 00 00 00 00 00    ..........d.....
0x02D0:   00 00 00 00 00 00 00 00   00 00 00 00 00 00 00 00    ................
0x02E0:   00 00 00 00 00 00 00 00   00 00 33 00 00 00 00 00    ..........3.....
0x02F0:   00 00 00 00 00 00 00 00   00 00 00 00 00 00 00 00    ................
0x0300:   00 00 00 00 00 00 00 00   00 00 72 00 00 00 00 00    ..........r.....
0x0310:   00 00 00 00 00 00 00 00   00 00 00 00 00 00 00 00    ................
0x0320:   00 00 00 00 00 00 00 00   00 00 25 00 00 00 00 00    ..........%.....
0x0330:   00 00 00 00 00 00 00 00   00 00 00 00 00 00 00 00    ................
0x0340:   00 00 00 00 00 00 00 00   00 00 20 00 00 00 00 00    .......... .....
0x0350:   00 00 00 00 00 00 00 00   00 00 00 00 00 00 00 00    ................
0x0360:   00 00 00 00 00 00 00 00   00 00 20 00 00 00 00 00    .......... .....
0x0370:   00 00 00 00 00 00 00 00   00 00 00 00 00 00 00 00    ................
0x0380:   00 00 00 00 00 00 00 00   00 00 22 00 00 00 00 00    ..........".....
0x0390:   00 00 00 00 00 00 00 00   00 00 00 00 00 00 00 00    ................
0x03A0:   00 00 00 00 00 00 00 00   00 00 46                   ..........F     
nonce
0x0000:   03                                                   .               
gasPrice
0x0000:   0B A4 3B 74 00                                       ..;t.           
gas
0x0000:   2D C6 C0                                             -..             
receiveAddr
0x0000:   8C FA 5D CA D1 EE 0A 21   16 14 83 B6 BA 3B 48 14    ..]....!.....;H.
0x0010:   1C 5E 1B 69                                          .^.i            
value
data
0x0000:   E0 2E 17 7B 00 00 00 00   00 00 00 00 00 00 00 00    ...{............
0x0010:   00 00 00 00 00 00 00 00   00 00 00 00 00 00 00 00    ................
0x0020:   00 00 00 01 8D EE D2 E0   7E C6 D1 6D 55 FE BC 83    ........~..mU...
0x0030:   0B DB EB A5 1B A9 A2 66   62 CD 08 A2 2A FD A1 B9    .......fb...*...
0x0040:   C8 BF A6 61 00 00 00 00   00 00 00 00 00 00 00 00    ...a............
0x0050:   00 00 00 00 00 00 00 00   00 00 00 00 00 00 00 00    ................
0x0060:   00 00 00 00 00 00 00 00   00 00 00 00 00 00 00 00    ................
0x0070:   00 00 00 00 00 00 00 00   00 00 00 00 00 00 00 00    ................
0x0080:   00 00 00 80 00 00 00 00   00 00 00 00 00 00 00 00    ................
0x0090:   00 00 00 00 00 00 00 00   00 00 00 00 00 00 00 00    ................
0x00A0:   00 00 00 17 00 00 00 00   00 00 00 00 00 00 00 00    ................
0x00B0:   00 00 00 00 00 00 00 00   00 00 00 00 00 00 00 00    ................
0x00C0:   00 00 00 7B 00 00 00 00   00 00 00 00 00 00 00 00    ...{............
0x00D0:   00 00 00 00 00 00 00 00   00 00 00 00 00 00 00 00    ................
0x00E0:   00 00 00 65 00 00 00 00   00 00 00 00 00 00 00 00    ...e............
0x00F0:   00 00 00 00 00 00 00 00   00 00 00 00 00 00 00 00    ................
0x0100:   00 00 00 72 00 00 00 00   00 00 00 00 00 00 00 00    ...r............
0x0110:   00 00 00 00 00 00 00 00   00 00 00 00 00 00 00 00    ................
0x0120:   00 00 00 22 00 00 00 00   00 00 00 00 00 00 00 00    ..."............
0x0130:   00 00 00 00 00 00 00 00   00 00 00 00 00 00 00 00    ................
0x0140:   00 00 00 77 00 00 00 00   00 00 00 00 00 00 00 00    ...w............
0x0150:   00 00 00 00 00 00 00 00   00 00 00 00 00 00 00 00    ................
0x0160:   00 00 00 65 00 00 00 00   00 00 00 00 00 00 00 00    ...e............
0x0170:   00 00 00 00 00 00 00 00   00 00 00 00 00 00 00 00    ................
0x0180:   00 00 00 64 00 00 00 00   00 00 00 00 00 00 00 00    ...d............
0x0190:   00 00 00 00 00 00 00 00   00 00 00 00 00 00 00 00    ................
0x01A0:   00 00 00 6E 00 00 00 00   00 00 00 00 00 00 00 00    ...n............
0x01B0:   00 00 00 00 00 00 00 00   00 00 00 00 00 00 00 00    ................
0x01C0:   00 00 00 61 00 00 00 00   00 00 00 00 00 00 00 00    ...a............
0x01D0:   00 00 00 00 00 00 00 00   00 00 00 00 00 00 00 00    ................
0x01E0:   00 00 00 32 00 00 00 00   00 00 00 00 00 00 00 00    ...2............
0x01F0:   00 00 00 00 00 00 00 00   00 00 00 00 00 00 00 00    ................
0x0200:   00 00 00 65 00 00 00 00   00 00 00 00 00 00 00 00    ...e............
0x0210:   00 00 00 00 00 00 00 00   00 00 00 00 00 00 00 00    ................
0x0220:   00 00 00 75 00 00 00 00   00 00 00 00 00 00 00 00    ...u............
0x0230:   00 00 00 00 00 00 00 00   00 00 00 00 00 00 00 00    ................
0x0240:   00 00 00 6C 00 00 00 00   00 00 00 00 00 00 00 00    ...l............
0x0250:   00 00 00 00 00 00 00 00   00 00 00 00 00 00 00 00    ................
0x0260:   00 00 00 2F 00 00 00 00   00 00 00 00 00 00 00 00    .../............
0x0270:   00 00 00 00 00 00 00 00   00 00 00 00 00 00 00 00    ................
0x0280:   00 00 00 2E 00 00 00 00   00 00 00 00 00 00 00 00    ................
0x0290:   00 00 00 00 00 00 00 00   00 00 00 00 00 00 00 00    ................
0x02A0:   00 00 00 64 00 00 00 00   00 00 00 00 00 00 00 00    ...d............
0x02B0:   00 00 00 00 00 00 00 00   00 00 00 00 00 00 00 00    ................
0x02C0:   00 00 00 33 00 00 00 00   00 00 00 00 00 00 00 00    ...3............
0x02D0:   00 00 00 00 00 00 00 00   00 00 00 00 00 00 00 00    ................
0x02E0:   00 00 00 72 00 00 00 00   00 00 00 00 00 00 00 00    ...r............
0x02F0:   00 00 00 00 00 00 00 00   00 00 00 00 00 00 00 00    ................
0x0300:   00 00 00 25 00 00 00 00   00 00 00 00 00 00 00 00    ...%............
0x0310:   00 00 00 00 00 00 00 00   00 00 00 00 00 00 00 00    ................
0x0320:   00 00 00 20 00 00 00 00   00 00 00 00 00 00 00 00    ... ............
0x0330:   00 00 00 00 00 00 00 00   00 00 00 00 00 00 00 00    ................
0x0340:   00 00 00 20 00 00 00 00   00 00 00 00 00 00 00 00    ... ............
0x0350:   00 00 00 00 00 00 00 00   00 00 00 00 00 00 00 00    ................
0x0360:   00 00 00 22 00 00 00 00   00 00 00 00 00 00 00 00    ..."............
0x0370:   00 00 00 00 00 00 00 00   00 00 00 00 00 00 00 00    ................
0x0380:   00 00 00 46                                          ...F            
final tx
0x0000:   F9 03 EB 03 85 0B A4 3B   74 00 83 2D C6 C0 94 8C    .......;t..-....
0x0010:   FA 5D CA D1 EE 0A 21 16   14 83 B6 BA 3B 48 14 1C    .]....!.....;H..
0x0020:   5E 1B 69 80 B9 03 84 E0   2E 17 7B 00 00 00 00 00    ^.i.......{.....
0x0030:   00 00 00 00 00 00 00 00   00 00 00 00 00 00 00 00    ................
0x0040:   00 00 00 00 00 00 00 00   00 00 01 8D EE D2 E0 7E    ...............~
0x0050:   C6 D1 6D 55 FE BC 83 0B   DB EB A5 1B A9 A2 66 62    ..mU..........fb
0x0060:   CD 08 A2 2A FD A1 B9 C8   BF A6 61 00 00 00 00 00    ...*......a.....
0x0070:   00 00 00 00 00 00 00 00   00 00 00 00 00 00 00 00    ................
0x0080:   00 00 00 00 00 00 00 00   00 00 00 00 00 00 00 00    ................
0x0090:   00 00 00 00 00 00 00 00   00 00 00 00 00 00 00 00    ................
0x00A0:   00 00 00 00 00 00 00 00   00 00 80 00 00 00 00 00    ................
0x00B0:   00 00 00 00 00 00 00 00   00 00 00 00 00 00 00 00    ................
0x00C0:   00 00 00 00 00 00 00 00   00 00 17 00 00 00 00 00    ................
0x00D0:   00 00 00 00 00 00 00 00   00 00 00 00 00 00 00 00    ................
0x00E0:   00 00 00 00 00 00 00 00   00 00 7B 00 00 00 00 00    ..........{.....
0x00F0:   00 00 00 00 00 00 00 00   00 00 00 00 00 00 00 00    ................
0x0100:   00 00 00 00 00 00 00 00   00 00 65 00 00 00 00 00    ..........e.....
0x0110:   00 00 00 00 00 00 00 00   00 00 00 00 00 00 00 00    ................
0x0120:   00 00 00 00 00 00 00 00   00 00 72 00 00 00 00 00    ..........r.....
0x0130:   00 00 00 00 00 00 00 00   00 00 00 00 00 00 00 00    ................
0x0140:   00 00 00 00 00 00 00 00   00 00 22 00 00 00 00 00    ..........".....
0x0150:   00 00 00 00 00 00 00 00   00 00 00 00 00 00 00 00    ................
0x0160:   00 00 00 00 00 00 00 00   00 00 77 00 00 00 00 00    ..........w.....
0x0170:   00 00 00 00 00 00 00 00   00 00 00 00 00 00 00 00    ................
0x0180:   00 00 00 00 00 00 00 00   00 00 65 00 00 00 00 00    ..........e.....
0x0190:   00 00 00 00 00 00 00 00   00 00 00 00 00 00 00 00    ................
0x01A0:   00 00 00 00 00 00 00 00   00 00 64 00 00 00 00 00    ..........d.....
0x01B0:   00 00 00 00 00 00 00 00   00 00 00 00 00 00 00 00    ................
0x01C0:   00 00 00 00 00 00 00 00   00 00 6E 00 00 00 00 00    ..........n.....
0x01D0:   00 00 00 00 00 00 00 00   00 00 00 00 00 00 00 00    ................
0x01E0:   00 00 00 00 00 00 00 00   00 00 61 00 00 00 00 00    ..........a.....
0x01F0:   00 00 00 00 00 00 00 00   00 00 00 00 00 00 00 00    ................
0x0200:   00 00 00 00 00 00 00 00   00 00 32 00 00 00 00 00    ..........2.....
0x0210:   00 00 00 00 00 00 00 00   00 00 00 00 00 00 00 00    ................
0x0220:   00 00 00 00 00 00 00 00   00 00 65 00 00 00 00 00    ..........e.....
0x0230:   00 00 00 00 00 00 00 00   00 00 00 00 00 00 00 00    ................
0x0240:   00 00 00 00 00 00 00 00   00 00 75 00 00 00 00 00    ..........u.....
0x0250:   00 00 00 00 00 00 00 00   00 00 00 00 00 00 00 00    ................
0x0260:   00 00 00 00 00 00 00 00   00 00 6C 00 00 00 00 00    ..........l.....
0x0270:   00 00 00 00 00 00 00 00   00 00 00 00 00 00 00 00    ................
0x0280:   00 00 00 00 00 00 00 00   00 00 2F 00 00 00 00 00    ........../.....
0x0290:   00 00 00 00 00 00 00 00   00 00 00 00 00 00 00 00    ................
0x02A0:   00 00 00 00 00 00 00 00   00 00 2E 00 00 00 00 00    ................
0x02B0:   00 00 00 00 00 00 00 00   00 00 00 00 00 00 00 00    ................
0x02C0:   00 00 00 00 00 00 00 00   00 00 64 00 00 00 00 00    ..........d.....
0x02D0:   00 00 00 00 00 00 00 00   00 00 00 00 00 00 00 00    ................
0x02E0:   00 00 00 00 00 00 00 00   00 00 33 00 00 00 00 00    ..........3.....
0x02F0:   00 00 00 00 00 00 00 00   00 00 00 00 00 00 00 00    ................
0x0300:   00 00 00 00 00 00 00 00   00 00 72 00 00 00 00 00    ..........r.....
0x0310:   00 00 00 00 00 00 00 00   00 00 00 00 00 00 00 00    ................
0x0320:   00 00 00 00 00 00 00 00   00 00 25 00 00 00 00 00    ..........%.....
0x0330:   00 00 00 00 00 00 00 00   00 00 00 00 00 00 00 00    ................
0x0340:   00 00 00 00 00 00 00 00   00 00 20 00 00 00 00 00    .......... .....
0x0350:   00 00 00 00 00 00 00 00   00 00 00 00 00 00 00 00    ................
0x0360:   00 00 00 00 00 00 00 00   00 00 20 00 00 00 00 00    .......... .....
0x0370:   00 00 00 00 00 00 00 00   00 00 00 00 00 00 00 00    ................
0x0380:   00 00 00 00 00 00 00 00   00 00 22 00 00 00 00 00    ..........".....
0x0390:   00 00 00 00 00 00 00 00   00 00 00 00 00 00 00 00    ................
0x03A0:   00 00 00 00 00 00 00 00   00 00 46 1B A0 B3 FE 12    ..........F.....
0x03B0:   46 89 06 18 4D 8E 19 D2   72 8D D8 75 9C 4F 82 B9    F...M...r..u.O..
0x03C0:   5E 11 FA E5 90 C0 67 A4   20 E2 00 A4 8B A0 76 78    ^.....g. .....vx
0x03D0:   22 F8 39 C9 EC 5A 3B 5D   99 4E 57 E4 08 50 18 C9    ".9..Z;].NW..P..
0x03E0:   5E 55 79 22 9A 6F 6F CB   71 4B 1A 2A 91 2F          ^Uy".oo.qK.*./  
[NOTI] (eth_transaction.cpp:332) finished transaction for nonce=3, id=1, type=0, date_len=160, err=0, total size=1006B
2020-12-10 16:50:04,462 [status_rpc_server.cpp:148] INFO  - ecall succeeds
2020-12-10 16:50:04,463 [status_rpc_server.cpp:152] DEBUG - response tx: 0xF903EB03850BA43B7400832DC6C0948CFA5DCAD1EE0A21161483B6BA3B48141C5E1B6980B90384E02E177B00000000000000000000000000000000000000000000000000000000000000018DEED2E07EC6D16D55FEBC830BDBEBA51BA9A26662CD08A22AFDA1B9C8BFA661000000000000000000000000000000000000000000000000000000000000000000000000000000000000000000000000000000000000000000000000000000800000000000000000000000000000000000000000000000000000000000000017000000000000000000000000000000000000000000000000000000000000007B000000000000000000000000000000000000000000000000000000000000006500000000000000000000000000000000000000000000000000000000000000720000000000000000000000000000000000000000000000000000000000000022000000000000000000000000000000000000000000000000000000000000007700000000000000000000000000000000000000000000000000000000000000650000000000000000000000000000000000000000000000000000000000000064000000000000000000000000000000000000000000000000000000000000006E0000000000000000000000000000000000000000000000000000000000000061000000000000000000000000000000000000000000000000000000000000003200000000000000000000000000000000000000000000000000000000000000650000000000000000000000000000000000000000000000000000000000000075000000000000000000000000000000000000000000000000000000000000006C000000000000000000000000000000000000000000000000000000000000002F000000000000000000000000000000000000000000000000000000000000002E000000000000000000000000000000000000000000000000000000000000006400000000000000000000000000000000000000000000000000000000000000330000000000000000000000000000000000000000000000000000000000000072000000000000000000000000000000000000000000000000000000000000002500000000000000000000000000000000000000000000000000000000000000200000000000000000000000000000000000000000000000000000000000000020000000000000000000000000000000000000000000000000000000000000002200000000000000000000000000000000000000000000000000000000000000461BA0B3FE12468906184D8E19D2728DD8759C4F82B95E11FAE590C067A420E200A48BA0767822F839C9EC5A3B5D994E57E4085018C95E5579229A6F6FCB714B1A2A912F
